{"abi":[{"type":"constructor","inputs":[{"name":"_identityRegistry","type":"address","internalType":"address"},{"name":"_serviceRegistry","type":"address","internalType":"address"}],"stateMutability":"nonpayable"},{"type":"function","name":"DELIVERY_TIMEOUT","inputs":[],"outputs":[{"name":"","type":"uint256","internalType":"uint256"}],"stateMutability":"view"},{"type":"function","name":"DISPUTE_TIMEOUT","inputs":[],"outputs":[{"name":"","type":"uint256","internalType":"uint256"}],"stateMutability":"view"},{"type":"function","name":"MAX_DEADLINE","inputs":[],"outputs":[{"name":"","type":"uint256","internalType":"uint256"}],"stateMutability":"view"},{"type":"function","name":"acceptDeal","inputs":[{"name":"dealId","type":"uint256","internalType":"uint256"}],"outputs":[],"stateMutability":"nonpayable"},{"type":"function","name":"agentDealsAsBuyer","inputs":[{"name":"","type":"uint256","internalType":"uint256"},{"name":"","type":"uint256","internalType":"uint256"}],"outputs":[{"name":"","type":"uint256","internalType":"uint256"}],"stateMutability":"view"},{"type":"function","name":"agentDealsAsSeller","inputs":[{"name":"","type":"uint256","internalType":"uint256"},{"name":"","type":"uint256","internalType":"uint256"}],"outputs":[{"name":"","type":"uint256","internalType":"uint256"}],"stateMutability":"view"},{"type":"function","name":"claimRefund","inputs":[{"name":"dealId","type":"uint256","internalType":"uint256"}],"outputs":[],"stateMutability":"nonpayable"},{"type":"function","name":"confirmDelivery","inputs":[{"name":"dealId","type":"uint256","internalType":"uint256"}],"outputs":[],"stateMutability":"nonpayable"},{"type":"function","name":"createDeal","inputs":[{"name":"serviceId","type":"uint256","internalType":"uint256"},{"name":"buyerAgentId","type":"uint256","internalType":"uint256"},{"name":"sellerAgentId","type":"uint256","internalType":"uint256"},{"name":"paymentToken","type":"address","internalType":"address"},{"name":"amount","type":"uint256","internalType":"uint256"},{"name":"taskDescription","type":"string","internalType":"string"},{"name":"deadline","type":"uint256","internalType":"uint256"}],"outputs":[{"name":"dealId","type":"uint256","internalType":"uint256"}],"stateMutability":"nonpayable"},{"type":"function","name":"deals","inputs":[{"name":"","type":"uint256","internalType":"uint256"}],"outputs":[{"name":"dealId","type":"uint256","internalType":"uint256"},{"name":"serviceId","type":"uint256","internalType":"uint256"},{"name":"buyerAgentId","type":"uint256","internalType":"uint256"},{"name":"sellerAgentId","type":"uint256","internalType":"uint256"},{"name":"buyer","type":"address","internalType":"address"},{"name":"seller","type":"address","internalType":"address"},{"name":"paymentToken","type":"address","internalType":"address"},{"name":"amount","type":"uint256","internalType":"uint256"},{"name":"taskDescription","type":"string","internalType":"string"},{"name":"deliveryProof","type":"string","internalType":"string"},{"name":"status","type":"uint8","internalType":"enum NastarEscrow.DealStatus"},{"name":"createdAt","type":"uint256","internalType":"uint256"},{"name":"deadline","type":"uint256","internalType":"uint256"},{"name":"completedAt","type":"uint256","internalType":"uint256"},{"name":"disputedAt","type":"uint256","internalType":"uint256"}],"stateMutability":"view"},{"type":"function","name":"deliverDeal","inputs":[{"name":"dealId","type":"uint256","internalType":"uint256"},{"name":"proof","type":"string","internalType":"string"}],"outputs":[],"stateMutability":"nonpayable"},{"type":"function","name":"disputeDeal","inputs":[{"name":"dealId","type":"uint256","internalType":"uint256"}],"outputs":[],"stateMutability":"nonpayable"},{"type":"function","name":"getBuyerDeals","inputs":[{"name":"agentId","type":"uint256","internalType":"uint256"}],"outputs":[{"name":"","type":"uint256[]","internalType":"uint256[]"}],"stateMutability":"view"},{"type":"function","name":"getDeal","inputs":[{"name":"dealId","type":"uint256","internalType":"uint256"}],"outputs":[{"name":"","type":"tuple","internalType":"struct NastarEscrow.Deal","components":[{"name":"dealId","type":"uint256","internalType":"uint256"},{"name":"serviceId","type":"uint256","internalType":"uint256"},{"name":"buyerAgentId","type":"uint256","internalType":"uint256"},{"name":"sellerAgentId","type":"uint256","internalType":"uint256"},{"name":"buyer","type":"address","internalType":"address"},{"name":"seller","type":"address","internalType":"address"},{"name":"paymentToken","type":"address","internalType":"address"},{"name":"amount","type":"uint256","internalType":"uint256"},{"name":"taskDescription","type":"string","internalType":"string"},{"name":"deliveryProof","type":"string","internalType":"string"},{"name":"status","type":"uint8","internalType":"enum NastarEscrow.DealStatus"},{"name":"createdAt","type":"uint256","internalType":"uint256"},{"name":"deadline","type":"uint256","internalType":"uint256"},{"name":"completedAt","type":"uint256","internalType":"uint256"},{"name":"disputedAt","type":"uint256","internalType":"uint256"}]}],"stateMutability":"view"},{"type":"function","name":"getSellerDeals","inputs":[{"name":"agentId","type":"uint256","internalType":"uint256"}],"outputs":[{"name":"","type":"uint256[]","internalType":"uint256[]"}],"stateMutability":"view"},{"type":"function","name":"identityRegistry","inputs":[],"outputs":[{"name":"","type":"address","internalType":"contract IERC721"}],"stateMutability":"view"},{"type":"function","name":"nextDealId","inputs":[],"outputs":[{"name":"","type":"uint256","internalType":"uint256"}],"stateMutability":"view"},{"type":"function","name":"sellerClaimAfterTimeout","inputs":[{"name":"dealId","type":"uint256","internalType":"uint256"}],"outputs":[],"stateMutability":"nonpayable"},{"type":"function","name":"serviceRegistry","inputs":[],"outputs":[{"name":"","type":"address","internalType":"address"}],"stateMutability":"view"},{"type":"event","name":"DealAccepted","inputs":[{"name":"dealId","type":"uint256","indexed":true,"internalType":"uint256"},{"name":"sellerAgentId","type":"uint256","indexed":true,"internalType":"uint256"}],"anonymous":false},{"type":"event","name":"DealCompleted","inputs":[{"name":"dealId","type":"uint256","indexed":true,"internalType":"uint256"},{"name":"amount","type":"uint256","indexed":false,"internalType":"uint256"}],"anonymous":false},{"type":"event","name":"DealCreated","inputs":[{"name":"dealId","type":"uint256","indexed":true,"internalType":"uint256"},{"name":"buyerAgentId","type":"uint256","indexed":true,"internalType":"uint256"},{"name":"sellerAgentId","type":"uint256","indexed":true,"internalType":"uint256"},{"name":"serviceId","type":"uint256","indexed":false,"internalType":"uint256"},{"name":"paymentToken","type":"address","indexed":false,"internalType":"address"},{"name":"amount","type":"uint256","indexed":false,"internalType":"uint256"},{"name":"deadline","type":"uint256","indexed":false,"internalType":"uint256"}],"anonymous":false},{"type":"event","name":"DealDelivered","inputs":[{"name":"dealId","type":"uint256","indexed":true,"internalType":"uint256"},{"name":"deliveryProof","type":"string","indexed":false,"internalType":"string"}],"anonymous":false},{"type":"event","name":"DealDisputed","inputs":[{"name":"dealId","type":"uint256","indexed":true,"internalType":"uint256"},{"name":"buyerAgentId","type":"uint256","indexed":true,"internalType":"uint256"},{"name":"disputedAt","type":"uint256","indexed":false,"internalType":"uint256"}],"anonymous":false},{"type":"event","name":"DealExpired","inputs":[{"name":"dealId","type":"uint256","indexed":true,"internalType":"uint256"}],"anonymous":false},{"type":"event","name":"DealRefunded","inputs":[{"name":"dealId","type":"uint256","indexed":true,"internalType":"uint256"},{"name":"amount","type":"uint256","indexed":false,"internalType":"uint256"}],"anonymous":false},{"type":"error","name":"DeadlineTooLong","inputs":[]},{"type":"error","name":"DealExpiredError","inputs":[]},{"type":"error","name":"DeliveryTimeoutNotReached","inputs":[{"name":"canClaimAt","type":"uint256","internalType":"uint256"},{"name":"now_","type":"uint256","internalType":"uint256"}]},{"type":"error","name":"DisputeTimeoutNotReached","inputs":[{"name":"canRefundAt","type":"uint256","internalType":"uint256"},{"name":"now_","type":"uint256","internalType":"uint256"}]},{"type":"error","name":"InvalidStatus","inputs":[{"name":"expected","type":"uint8","internalType":"enum NastarEscrow.DealStatus"},{"name":"actual","type":"uint8","internalType":"enum NastarEscrow.DealStatus"}]},{"type":"error","name":"NotAgentOwner","inputs":[]},{"type":"error","name":"NotBuyer","inputs":[]},{"type":"error","name":"NotRefundable","inputs":[]},{"type":"error","name":"NotSeller","inputs":[]},{"type":"error","name":"SelfDeal","inputs":[]},{"type":"error","name":"TransferFailed","inputs":[]},{"type":"error","name":"ZeroAddress","inputs":[]},{"type":"error","name":"ZeroAmount","inputs":[]}],"bytecode":{"object":"0x60c034620000cc57601f6200191a38819003918201601f19168301916001600160401b03831184841017620000d0578084926040948552833981010312620000cc576200005a60206200005283620000e4565b9201620000e4565b906001600160a01b03908116908115908115620000c0575b50620000ae5760805260a0526040516118209081620000fa82396080518181816106640152818161070d015261139c015260a0518161053b0152f35b60405163d92e233d60e01b8152600490fd5b90508216155f62000072565b5f80fd5b634e487b7160e01b5f52604160045260245ffd5b51906001600160a01b0382168203620000cc5756fe60806040526004361015610011575f80fd5b5f3560e01c806303988f84146113cb578063134e18f4146113875780632de747421461134a5780633916ba38146112e2578063486265c6146112c55780634d9879e3146112a95780635b7baf64146110c85780636f0e530f146110ab5780637bce25dd14610f735780637d41702e14610ec057806382fd5bac14610c7c5780638d9fe726146105ff578063bf9d36fc14610587578063c732bcd21461056a578063cbcf252a14610526578063ce4c27ce146104e8578063d2114e0c146102b9578063fc8edb52146102355763fd84cb97146100ea575f80fd5b346102315760208060031936011261023157600435805f526001825260405f2090610114826117aa565b60048201546001600160a01b0391908216330361021f57828492600a6101ba9501600360ff1982541617905542600d83015560078160058401541691600684015416920154927fd78ea1895a54fef557b21f240ae42cdf7bed32528d9d4f42f81458e17a1db48285604051868152a260405163a9059cbb60e01b81526001600160a01b0390911660048201526024810192909252909283919082905f9082906044820190565b03925af1918215610214575f926101e7575b5050156101d557005b6040516312171d8360e31b8152600490fd5b6102069250803d1061020d575b6101fe8183611534565b8101906116eb565b5f806101cc565b503d6101f4565b6040513d5f823e3d90fd5b60405163239700bf60e11b8152600490fd5b5f80fd5b3461023157602036600319011261023157600435805f52600160205260405f2061025e816117aa565b60048101546001600160a01b0316330361021f5780600a60029201600460ff1982541617905542600e8201550154907fd9ffa04b2f1a5f51cbd7a6f14375665b41da7e2fa73566d65b5b4f6402a47d3d6020604051428152a3005b346102315760403660031901126102315767ffffffffffffffff600435602435828111610231576102ee9036906004016116bd565b9092825f5260019360209185835260405f2090600a82019160ff83541660078110156104d4578881036104ad575060058101546001600160a01b0316330361049b57600c810154421161048957600901908511610475576103598561035383546114df565b83611722565b5f96601f86116001146103ef575060409392859283926103b184807fffa92937e04d994d5080499878491811e39b0c12ace952efca20f1fc61afd9129b9c5f916103e4575b508160011b915f199060031b1c19161790565b90555b600260ff198254161790558451958487958652850152848401375f828201840152601f01601f19168101030190a2005b90508501358d61039e565b601f198616825f52855f20905f5b81811061046057509260409695928895927fffa92937e04d994d5080499878491811e39b0c12ace952efca20f1fc61afd9129a9b87809710610447575b505084811b0190556103b4565b8501355f19600388901b60f8161c191690558b8061043a565b868b01358355998701999183019187016103fd565b634e487b7160e01b5f52604160045260245ffd5b6040516372eec39360e01b8152600490fd5b604051635ec8235160e01b8152600490fd5b60405163f924664d60e01b8152600481018a90526044916104d2906024830190611636565bfd5b634e487b7160e01b5f52602160045260245ffd5b34610231576104f636611643565b905f52600360205260405f2080548210156102315760209161051791611659565b90549060031b1c604051908152f35b34610231575f366003190112610231576040517f00000000000000000000000000000000000000000000000000000000000000006001600160a01b03168152602090f35b34610231575f36600319011261023157602060405162093a808152f35b3461023157602080600319360112610231576004355f52600360205260405f20906040519081602084549182815201935f5260205f20915f905b8282106105e8576105e4856105d881890382611534565b60405191829182611682565b0390f35b8354865294850194600193840193909101906105c1565b346102315760e0366003190112610231576064356001600160a01b03811681036102315760a43567ffffffffffffffff8111610231576106439036906004016116bd565b6040516331a9108f60e11b81526024803560048301529193916020908290817f00000000000000000000000000000000000000000000000000000000000000006001600160a01b03165afa908115610214575f91610c5d575b50336001600160a01b0390911603610c4b5760443560243514610c395760843515610c27576001600160a01b03811615610c155762278d004201804211610bbe5760c43511610c03574260c4351115610489576040516331a9108f60e11b81526044356004820152916020836024817f00000000000000000000000000000000000000000000000000000000000000006001600160a01b03165afa928315610214575f93610bd2575b505f54935f198514610bbe57600185015f556040519361076485611517565b8585526004356020860152602435604086015260443560608601523360808601526001600160a01b0390811660a0860152831660c085015260843560e085015267ffffffffffffffff811161047557604051916107cb601f8301601f191660200184611534565b818352368282011161023157815f92602092838601378301015261010083015260405180602081011067ffffffffffffffff60208301111761047557602081016040525f81526101208301525f6101408301524261016083015260c4356101808301525f6101a08301525f6101c0830152825f52600160205260405f2090825182556020830151600183015560408301516002830155606083015160038301556004820160018060a01b03608085015116906bffffffffffffffffffffffff60a01b91828254161790556005830160018060a01b0360a08601511682825416179055600683019060018060a01b0360c0860151169082541617905560e0830151600783015561010083015180519067ffffffffffffffff821161047557610902826108f960088701546114df565b60088701611722565b602090601f8311600114610b545761093192915f9183610adf575b50508160011b915f199060031b1c19161790565b60088301555b61012083015180519067ffffffffffffffff8211610475576109698261096060098701546114df565b60098701611722565b602090601f8311600114610aea5761099792915f9183610adf5750508160011b915f199060031b1c19161790565b60098301555b6101408301519160078310156104d457600e6101c05f9560209560ff8019600a87015416911617600a850155610160810151600b850155610180810151600c8501556101a0810151600d8501550151910155602435835260028252610a058460408520611771565b604435835260038252610a1b8460408520611771565b604051600435815260018060a01b03821683820152608435604082015260c435606082015260443590857f6bb122e4b14a41d111379967e6fd6c18cdd1cab504eea94e1765d3bded713ce6608060243593a46040516323b872dd60e01b8152336004820152306024820152608435604482015292839160649183916001600160a01b03165af1908115610214575f91610ac0575b50156101d557602090604051908152f35b610ad9915060203d60201161020d576101fe8183611534565b82610aaf565b01519050878061091d565b90601f19831691600986015f5260205f20925f5b818110610b3c5750908460019594939210610b24575b505050811b01600983015561099d565b01515f1960f88460031b161c19169055868080610b14565b92936020600181928786015181550195019301610afe565b90601f19831691600886015f5260205f20925f5b818110610ba65750908460019594939210610b8e575b505050811b016008830155610937565b01515f1960f88460031b161c19169055868080610b7e565b92936020600181928786015181550195019301610b68565b634e487b7160e01b5f52601160045260245ffd5b610bf591935060203d602011610bfc575b610bed8183611534565b810190611703565b9184610745565b503d610be3565b6040516354090af960e01b8152600490fd5b60405163d92e233d60e01b8152600490fd5b604051631f2a200560e01b8152600490fd5b60405163702d685960e01b8152600490fd5b604051630e41dcbf60e21b8152600490fd5b610c76915060203d602011610bfc57610bed8183611534565b8461069c565b34610231576020366003190112610231575f6101c0604051610c9d81611517565b8281528260208201528260408201528260608201528260808201528260a08201528260c08201528260e082015260606101008201526060610120820152826101408201528261016082015282610180820152826101a082015201526004355f52600160205260405f2060405190610d1382611517565b8054825260018101546020830152600281015460408301526003810154606083015260048101546001600160a01b0390811660808401526005820154811660a084015260068201541660c0830152600781015460e0830152610d7760088201611556565b610100830152610d8960098201611556565b61012083015260ff600a820154169060078210156104d457600e91610140840152600b810154610160840152600c810154610180840152600d8101546101a084015201546101c08201526040518091602082528051602083015260208101516040830152604081015160608301526060810151608083015260018060a01b0360808201511660a083015260018060a01b0360a08201511660c083015260018060a01b0360c08201511660e083015260e08101516101008301526101008101516101c0610e7f610e676101e093846101208801526102008701906115f8565b610120850151868203601f19016101408801526115f8565b92610e94610140820151610160870190611636565b6101608101516101808601526101808101516101a08601526101a0810151828601520151908301520390f35b3461023157602036600319011261023157600435805f52600160205260405f20600a81019081549160ff831660078110156104d45780610f4f575060058201546001600160a01b0316330361049b57600c820154421161048957600160039360ff19161790550154907f0fc3075ed12a7c6ae22f03793f31154b739fde75f708d06516d08d57a09b0d515f80a3005b60405163f924664d60e01b81525f60048201526044916104d2906024830190611636565b346102315760208060031936011261023157600435805f526001825260405f20610f9c816117aa565b60058101546001600160a01b039081169033820361049b57600c83015462093a808101809111610bbe5780421061108e575091611057939160078694600a8401600360ff1982541617905542600d850155600684015416920154927fd78ea1895a54fef557b21f240ae42cdf7bed32528d9d4f42f81458e17a1db48285604051868152a260405163a9059cbb60e01b81526001600160a01b0390911660048201526024810192909252909283919082905f9082906044820190565b03925af1918215610214575f92611071575050156101d557005b6110879250803d1061020d576101fe8183611534565b81806101cc565b60449060405190628ea4db60e21b82526004820152426024820152fd5b34610231575f36600319011261023157602060405162278d008152f35b346102315760208060031936011261023157600435805f526001825260405f2090600482019060018060a01b039283835416330361021f57600a810180545f9060ff811660078110156104d45780158061129c575b156111e557505050600660ff198254161790556001827f4877925cd1e279c5d3b475b58cf04cbb9e3b70c517a2305ac4933c34d28ca24f5f80a25b156111d357836007611057958795541691600684015416920154927f0d759492754b3de794f1a978637f5e06fa6d5f61b11065953d46285d9c83f5bd85604051868152a260405163a9059cbb60e01b81526001600160a01b0390911660048201526024810192909252909283919082905f9082906044820190565b604051631ba168fb60e11b8152600490fd5b600181148061128f575b1561122e57505050600660ff198254161790556001827f4877925cd1e279c5d3b475b58cf04cbb9e3b70c517a2305ac4933c34d28ca24f5f80a2611158565b91929091600414611241575b5050611158565b909150600e8301546203f4808101809111610bbe578042106112715750600560019260ff1916179055868061123a565b60449060405190635393528b60e11b82526004820152426024820152fd5b50600c85015442116111ef565b50600c850154421161111d565b34610231575f3660031901126102315760205f54604051908152f35b34610231575f3660031901126102315760206040516203f4808152f35b3461023157602080600319360112610231576004355f52600260205260405f20906040519081602084549182815201935f5260205f20915f905b828210611333576105e4856105d881890382611534565b83548652948501946001938401939091019061131c565b346102315761135836611643565b905f52600260205260405f2080548210156102315760209161137991611659565b90546040519160031b1c8152f35b34610231575f366003190112610231576040517f00000000000000000000000000000000000000000000000000000000000000006001600160a01b03168152602090f35b34610231576020366003190112610231576004355f52600160205260405f20805490600181015491600282015491600381015490600160a01b6001900380600483015416908060058401541690600684015416946007840154906008850161143290611556565b9061143f60098701611556565b92600a87015460ff1698600b88015495600c89015497600d8a015499600e01549a6040519e8f9e8f916101e0988352602083015260408201526060015260808d015260a08c015260c08b015260e08a0152806101008a015288016114a2916115f8565b8781036101208901526114b4916115f8565b9461014087016114c391611636565b6101608601526101808501526101a08401526101c08301520390f35b90600182811c9216801561150d575b60208310146114f957565b634e487b7160e01b5f52602260045260245ffd5b91607f16916114ee565b6101e0810190811067ffffffffffffffff82111761047557604052565b90601f8019910116810190811067ffffffffffffffff82111761047557604052565b9060405191825f8254611568816114df565b908184526020946001916001811690815f146115d65750600114611598575b50505061159692500383611534565b565b5f90815285812095935091905b8183106115be57505061159693508201015f8080611587565b855488840185015294850194879450918301916115a5565b9250505061159694925060ff191682840152151560051b8201015f8080611587565b91908251928382525f5b848110611622575050825f602080949584010152601f8019910116010190565b602081830181015184830182015201611602565b9060078210156104d45752565b6040906003190112610231576004359060243590565b805482101561166e575f5260205f2001905f90565b634e487b7160e01b5f52603260045260245ffd5b60209060206040818301928281528551809452019301915f5b8281106116a9575050505090565b83518552938101939281019260010161169b565b9181601f840112156102315782359167ffffffffffffffff8311610231576020838186019501011161023157565b90816020910312610231575180151581036102315790565b9081602091031261023157516001600160a01b03811681036102315790565b601f821161172f57505050565b5f5260205f20906020601f840160051c83019310611767575b601f0160051c01905b81811061175c575050565b5f8155600101611751565b9091508190611748565b8054680100000000000000008110156104755761179391600182018155611659565b819291549060031b91821b915f19901b1916179055565b600a015460ff1660078110156104d457600281036117c55750565b60405163f924664d60e01b8152600260048201526044916104d290602483019061163656fea26469706673582212205980e55ee3a803652ad9761d0ae5b31d7116d9bb84a5452534a31bae432e244964736f6c63430008170033","linkReferences":{}},"methodIdentifiers":{"DELIVERY_TIMEOUT()":"c732bcd2","DISPUTE_TIMEOUT()":"486265c6","MAX_DEADLINE()":"6f0e530f","acceptDeal(uint256)":"7d41702e","agentDealsAsBuyer(uint256,uint256)":"2de74742","agentDealsAsSeller(uint256,uint256)":"ce4c27ce","claimRefund(uint256)":"5b7baf64","confirmDelivery(uint256)":"fd84cb97","createDeal(uint256,uint256,uint256,address,uint256,string,uint256)":"8d9fe726","deals(uint256)":"03988f84","deliverDeal(uint256,string)":"d2114e0c","disputeDeal(uint256)":"fc8edb52","getBuyerDeals(uint256)":"3916ba38","getDeal(uint256)":"82fd5bac","getSellerDeals(uint256)":"bf9d36fc","identityRegistry()":"134e18f4","nextDealId()":"4d9879e3","sellerClaimAfterTimeout(uint256)":"7bce25dd","serviceRegistry()":"cbcf252a"},"id":22}