{"abi":[{"type":"constructor","inputs":[{"name":"_identityRegistry","type":"address","internalType":"address"},{"name":"_serviceRegistry","type":"address","internalType":"address"},{"name":"_feeRecipient","type":"address","internalType":"address"}],"stateMutability":"nonpayable"},{"type":"function","name":"ABANDONED_DISPUTE_TIMEOUT","inputs":[],"outputs":[{"name":"","type":"uint256","internalType":"uint256"}],"stateMutability":"view"},{"type":"function","name":"DELIVERY_TIMEOUT","inputs":[],"outputs":[{"name":"","type":"uint256","internalType":"uint256"}],"stateMutability":"view"},{"type":"function","name":"DISPUTE_TIMEOUT","inputs":[],"outputs":[{"name":"","type":"uint256","internalType":"uint256"}],"stateMutability":"view"},{"type":"function","name":"MAX_DEADLINE","inputs":[],"outputs":[{"name":"","type":"uint256","internalType":"uint256"}],"stateMutability":"view"},{"type":"function","name":"MIN_AMOUNT","inputs":[],"outputs":[{"name":"","type":"uint256","internalType":"uint256"}],"stateMutability":"view"},{"type":"function","name":"MIN_DEADLINE","inputs":[],"outputs":[{"name":"","type":"uint256","internalType":"uint256"}],"stateMutability":"view"},{"type":"function","name":"PROTOCOL_FEE_BPS","inputs":[],"outputs":[{"name":"","type":"uint256","internalType":"uint256"}],"stateMutability":"view"},{"type":"function","name":"acceptDeal","inputs":[{"name":"dealId","type":"uint256","internalType":"uint256"}],"outputs":[],"stateMutability":"nonpayable"},{"type":"function","name":"agentDealsAsBuyer","inputs":[{"name":"","type":"uint256","internalType":"uint256"},{"name":"","type":"uint256","internalType":"uint256"}],"outputs":[{"name":"","type":"uint256","internalType":"uint256"}],"stateMutability":"view"},{"type":"function","name":"agentDealsAsSeller","inputs":[{"name":"","type":"uint256","internalType":"uint256"},{"name":"","type":"uint256","internalType":"uint256"}],"outputs":[{"name":"","type":"uint256","internalType":"uint256"}],"stateMutability":"view"},{"type":"function","name":"claimRefund","inputs":[{"name":"dealId","type":"uint256","internalType":"uint256"}],"outputs":[],"stateMutability":"nonpayable"},{"type":"function","name":"confirmDelivery","inputs":[{"name":"dealId","type":"uint256","internalType":"uint256"}],"outputs":[],"stateMutability":"nonpayable"},{"type":"function","name":"contestDispute","inputs":[{"name":"dealId","type":"uint256","internalType":"uint256"}],"outputs":[],"stateMutability":"nonpayable"},{"type":"function","name":"createDeal","inputs":[{"name":"serviceId","type":"uint256","internalType":"uint256"},{"name":"buyerAgentId","type":"uint256","internalType":"uint256"},{"name":"sellerAgentId","type":"uint256","internalType":"uint256"},{"name":"paymentToken","type":"address","internalType":"address"},{"name":"amount","type":"uint256","internalType":"uint256"},{"name":"taskDescription","type":"string","internalType":"string"},{"name":"deadline","type":"uint256","internalType":"uint256"},{"name":"autoConfirm","type":"bool","internalType":"bool"}],"outputs":[{"name":"dealId","type":"uint256","internalType":"uint256"}],"stateMutability":"nonpayable"},{"type":"function","name":"deals","inputs":[{"name":"","type":"uint256","internalType":"uint256"}],"outputs":[{"name":"dealId","type":"uint256","internalType":"uint256"},{"name":"serviceId","type":"uint256","internalType":"uint256"},{"name":"buyerAgentId","type":"uint256","internalType":"uint256"},{"name":"sellerAgentId","type":"uint256","internalType":"uint256"},{"name":"buyer","type":"address","internalType":"address"},{"name":"seller","type":"address","internalType":"address"},{"name":"paymentToken","type":"address","internalType":"address"},{"name":"amount","type":"uint256","internalType":"uint256"},{"name":"taskDescription","type":"string","internalType":"string"},{"name":"deliveryProof","type":"string","internalType":"string"},{"name":"status","type":"uint8","internalType":"enum NastarEscrow.DealStatus"},{"name":"createdAt","type":"uint256","internalType":"uint256"},{"name":"deadline","type":"uint256","internalType":"uint256"},{"name":"completedAt","type":"uint256","internalType":"uint256"},{"name":"disputedAt","type":"uint256","internalType":"uint256"},{"name":"autoConfirm","type":"bool","internalType":"bool"}],"stateMutability":"view"},{"type":"function","name":"deliverDeal","inputs":[{"name":"dealId","type":"uint256","internalType":"uint256"},{"name":"proof","type":"string","internalType":"string"}],"outputs":[],"stateMutability":"nonpayable"},{"type":"function","name":"disputeDeal","inputs":[{"name":"dealId","type":"uint256","internalType":"uint256"}],"outputs":[],"stateMutability":"nonpayable"},{"type":"function","name":"feeRecipient","inputs":[],"outputs":[{"name":"","type":"address","internalType":"address"}],"stateMutability":"view"},{"type":"function","name":"getBuyerDeals","inputs":[{"name":"agentId","type":"uint256","internalType":"uint256"}],"outputs":[{"name":"","type":"uint256[]","internalType":"uint256[]"}],"stateMutability":"view"},{"type":"function","name":"getDeal","inputs":[{"name":"dealId","type":"uint256","internalType":"uint256"}],"outputs":[{"name":"","type":"tuple","internalType":"struct NastarEscrow.Deal","components":[{"name":"dealId","type":"uint256","internalType":"uint256"},{"name":"serviceId","type":"uint256","internalType":"uint256"},{"name":"buyerAgentId","type":"uint256","internalType":"uint256"},{"name":"sellerAgentId","type":"uint256","internalType":"uint256"},{"name":"buyer","type":"address","internalType":"address"},{"name":"seller","type":"address","internalType":"address"},{"name":"paymentToken","type":"address","internalType":"address"},{"name":"amount","type":"uint256","internalType":"uint256"},{"name":"taskDescription","type":"string","internalType":"string"},{"name":"deliveryProof","type":"string","internalType":"string"},{"name":"status","type":"uint8","internalType":"enum NastarEscrow.DealStatus"},{"name":"createdAt","type":"uint256","internalType":"uint256"},{"name":"deadline","type":"uint256","internalType":"uint256"},{"name":"completedAt","type":"uint256","internalType":"uint256"},{"name":"disputedAt","type":"uint256","internalType":"uint256"},{"name":"autoConfirm","type":"bool","internalType":"bool"}]}],"stateMutability":"view"},{"type":"function","name":"getSellerDeals","inputs":[{"name":"agentId","type":"uint256","internalType":"uint256"}],"outputs":[{"name":"","type":"uint256[]","internalType":"uint256[]"}],"stateMutability":"view"},{"type":"function","name":"identityRegistry","inputs":[],"outputs":[{"name":"","type":"address","internalType":"contract IERC721"}],"stateMutability":"view"},{"type":"function","name":"nextDealId","inputs":[],"outputs":[{"name":"","type":"uint256","internalType":"uint256"}],"stateMutability":"view"},{"type":"function","name":"sellerClaimAfterTimeout","inputs":[{"name":"dealId","type":"uint256","internalType":"uint256"}],"outputs":[],"stateMutability":"nonpayable"},{"type":"function","name":"sellerClaimFromAbandonedDispute","inputs":[{"name":"dealId","type":"uint256","internalType":"uint256"}],"outputs":[],"stateMutability":"nonpayable"},{"type":"function","name":"serviceRegistry","inputs":[],"outputs":[{"name":"","type":"address","internalType":"address"}],"stateMutability":"view"},{"type":"event","name":"DealAccepted","inputs":[{"name":"dealId","type":"uint256","indexed":true,"internalType":"uint256"},{"name":"sellerAgentId","type":"uint256","indexed":true,"internalType":"uint256"}],"anonymous":false},{"type":"event","name":"DealCompleted","inputs":[{"name":"dealId","type":"uint256","indexed":true,"internalType":"uint256"},{"name":"sellerAmount","type":"uint256","indexed":false,"internalType":"uint256"},{"name":"feeAmount","type":"uint256","indexed":false,"internalType":"uint256"}],"anonymous":false},{"type":"event","name":"DealContested","inputs":[{"name":"dealId","type":"uint256","indexed":true,"internalType":"uint256"},{"name":"buyerAmount","type":"uint256","indexed":false,"internalType":"uint256"},{"name":"sellerAmount","type":"uint256","indexed":false,"internalType":"uint256"},{"name":"feeAmount","type":"uint256","indexed":false,"internalType":"uint256"}],"anonymous":false},{"type":"event","name":"DealCreated","inputs":[{"name":"dealId","type":"uint256","indexed":true,"internalType":"uint256"},{"name":"buyerAgentId","type":"uint256","indexed":true,"internalType":"uint256"},{"name":"sellerAgentId","type":"uint256","indexed":true,"internalType":"uint256"},{"name":"serviceId","type":"uint256","indexed":false,"internalType":"uint256"},{"name":"paymentToken","type":"address","indexed":false,"internalType":"address"},{"name":"amount","type":"uint256","indexed":false,"internalType":"uint256"},{"name":"deadline","type":"uint256","indexed":false,"internalType":"uint256"}],"anonymous":false},{"type":"event","name":"DealDelivered","inputs":[{"name":"dealId","type":"uint256","indexed":true,"internalType":"uint256"},{"name":"deliveryProof","type":"string","indexed":false,"internalType":"string"}],"anonymous":false},{"type":"event","name":"DealDisputed","inputs":[{"name":"dealId","type":"uint256","indexed":true,"internalType":"uint256"},{"name":"buyerAgentId","type":"uint256","indexed":true,"internalType":"uint256"},{"name":"disputedAt","type":"uint256","indexed":false,"internalType":"uint256"}],"anonymous":false},{"type":"event","name":"DealExpired","inputs":[{"name":"dealId","type":"uint256","indexed":true,"internalType":"uint256"}],"anonymous":false},{"type":"event","name":"DealRefunded","inputs":[{"name":"dealId","type":"uint256","indexed":true,"internalType":"uint256"},{"name":"amount","type":"uint256","indexed":false,"internalType":"uint256"}],"anonymous":false},{"type":"error","name":"AbandonedDisputeTimeoutNotReached","inputs":[{"name":"canClaimAt","type":"uint256","internalType":"uint256"},{"name":"now_","type":"uint256","internalType":"uint256"}]},{"type":"error","name":"AmountTooSmall","inputs":[]},{"type":"error","name":"DeadlineTooLong","inputs":[]},{"type":"error","name":"DeadlineTooShort","inputs":[]},{"type":"error","name":"DealExpiredError","inputs":[]},{"type":"error","name":"DeliveryTimeoutNotReached","inputs":[{"name":"canClaimAt","type":"uint256","internalType":"uint256"},{"name":"now_","type":"uint256","internalType":"uint256"}]},{"type":"error","name":"DisputeTimeoutNotReached","inputs":[{"name":"canRefundAt","type":"uint256","internalType":"uint256"},{"name":"now_","type":"uint256","internalType":"uint256"}]},{"type":"error","name":"DisputeTimeoutReached","inputs":[]},{"type":"error","name":"InvalidStatus","inputs":[{"name":"expected","type":"uint8","internalType":"enum NastarEscrow.DealStatus"},{"name":"actual","type":"uint8","internalType":"enum NastarEscrow.DealStatus"}]},{"type":"error","name":"NotAgentOwner","inputs":[]},{"type":"error","name":"NotBuyer","inputs":[]},{"type":"error","name":"NotRefundable","inputs":[]},{"type":"error","name":"NotSeller","inputs":[]},{"type":"error","name":"ReentrancyDetected","inputs":[]},{"type":"error","name":"SelfDeal","inputs":[]},{"type":"error","name":"TransferFailed","inputs":[]},{"type":"error","name":"ZeroAddress","inputs":[]},{"type":"error","name":"ZeroAmount","inputs":[]}],"bytecode":{"object":"0x60e0346200010f57601f62001e6938819003918201601f19168301916001600160401b0383118484101762000113578084926060946040528339810103126200010f576200004d8162000127565b906200006a6040620000626020840162000127565b920162000127565b6001600455916001600160a01b0390811690811590811562000103575b8115620000f7575b50620000e55760805260a05260c052604051611d2c90816200013d8239608051818181610c0001528181610cb601526115a8015260a0518161052a015260c051818181610b38015281816114bf0152611be60152f35b60405163d92e233d60e01b8152600490fd5b90508316155f6200008f565b83811615915062000087565b5f80fd5b634e487b7160e01b5f52604160045260245ffd5b51906001600160a01b03821682036200010f5756fe60a06040526004361015610011575f80fd5b5f3560e01c806303988f841461167757806304972752146115d7578063134e18f4146115935780632de74742146115565780633916ba38146114ee57806346904840146114aa578063486265c61461148d5780634d9879e3146114715780635b7baf64146112b75780635fc9e96914610b755780636318aef114610b7a5780636f0e530f14610b7557806374f8087b146109f45780637bce25dd146109415780637d41702e1461088e57806382fd5bac1461062557806385ae341d14610609578063be378228146105ee578063bf9d36fc14610576578063c732bcd214610559578063cbcf252a14610515578063ce4c27ce146104d7578063d2114e0c1461026f578063ddbcb5fa14610253578063fc8edb52146101cf5763fd84cb9714610137575f80fd5b346101cb5760203660031901126101cb576001600454036101b95760026004556004355f52600160205260405f2061016e81611b23565b60048101546001600160a01b031633036101a757600a8101805460ff1916600317905542600d8201556101a090611b63565b6001600455005b60405163239700bf60e11b8152600490fd5b60405163c5f2be5160e01b8152600490fd5b5f80fd5b346101cb5760203660031901126101cb57600435805f52600160205260405f206101f881611b23565b60048101546001600160a01b031633036101a75780600a60029201600460ff1982541617905542600e8201550154907fd9ffa04b2f1a5f51cbd7a6f14375665b41da7e2fa73566d65b5b4f6402a47d3d6020604051428152a3005b346101cb575f3660031901126101cb5760206040516103e88152f35b346101cb5760403660031901126101cb5767ffffffffffffffff6004356024358281116101cb576102a49036906004016119bf565b6001939184600454036101b9576002600455835f5260208560205260405f2093600a85019160ff83541660088110156104c35788810361049c575060058601546001600160a01b0316330361048a57600c8601544211610478576009860191851161046457849061031f8261031985546117c4565b85611a28565b5f90601f83116001146104015750908061034d925f916103f6575b508160011b915f199060031b1c19161790565b90555b600f84015460ff16156103b157805460ff1916600317905542600d8401556040516103ac94927fffa92937e04d994d5080499878491811e39b0c12ace952efca20f1fc61afd9129282916103a49183611abd565b0390a2611b63565b600455005b7fffa92937e04d994d5080499878491811e39b0c12ace952efca20f1fc61afd9129350600260ff198254161790556103ee60405192839283611abd565b0390a2600455005b90508501358a61033a565b91601f198116845f5260205f20935f905b8c83831061044a5750505010610431575b50508684811b019055610350565b8401355f19600387901b60f8161c191690558780610423565b898601358755909501949384019389935090810190610412565b634e487b7160e01b5f52604160045260245ffd5b6040516372eec39360e01b8152600490fd5b604051635ec8235160e01b8152600490fd5b60405163f924664d60e01b8152600481018a90526044916104c190602483019061191b565bfd5b634e487b7160e01b5f52602160045260245ffd5b346101cb576104e536611928565b905f52600360205260405f2080548210156101cb576020916105069161193e565b90549060031b1c604051908152f35b346101cb575f3660031901126101cb576040517f00000000000000000000000000000000000000000000000000000000000000006001600160a01b03168152602090f35b346101cb575f3660031901126101cb57602060405162093a808152f35b346101cb576020806003193601126101cb576004355f52600360205260405f20906040519081602084549182815201935f5260205f20915f905b8282106105d7576105d3856105c781890382611819565b60405191829182611967565b0390f35b8354865294850194600193840193909101906105b0565b346101cb575f3660031901126101cb57602060405160fa8152f35b346101cb575f3660031901126101cb576020604051610e108152f35b346101cb5760203660031901126101cb575f6101e0604051610646816117fc565b8281528260208201528260408201528260608201528260808201528260a08201528260c08201528260e082015260606101008201526060610120820152826101408201528261016082015282610180820152826101a0820152826101c082015201526004355f52600160205260405f20604051906106c3826117fc565b8054825260018101546020830152600281015460408301526003810154606083015260048101546001600160a01b0390811660808401526005820154811660a084015260068201541660c0830152600781015460e08301526107276008820161183b565b6101008301526107396009820161183b565b61012083015260ff600a8201541660088110156104c35760ff91600f91610140850152600b810154610160850152600c810154610180850152600d8101546101a0850152600e8101546101c085015201541615156101e08201526040518091602082528051602083015260208101516040830152604081015160608301526060810151608083015260018060a01b0360808201511660a083015260018060a01b0360a08201511660c083015260018060a01b0360c08201511660e083015260e08101516101008301526101008101516101e061083f61082761020093846101208801526102208701906118dd565b610120850151868203601f19016101408801526118dd565b9261085461014082015161016087019061191b565b6101608101516101808601526101808101516101a08601526101a08101516101c08601526101c08101518286015201511515908301520390f35b346101cb5760203660031901126101cb57600435805f52600160205260405f20600a81019081549160ff831660088110156104c3578061091d575060058201546001600160a01b0316330361048a57600c820154421161047857600160039360ff19161790550154907f0fc3075ed12a7c6ae22f03793f31154b739fde75f708d06516d08d57a09b0d515f80a3005b60405163f924664d60e01b81525f60048201526044916104c190602483019061191b565b346101cb5760203660031901126101cb576001600454036101b95760026004556004355f52600160205260405f2061097881611b23565b60058101546001600160a01b0316330361048a57600c81015462093a8081018091116109e0578042106109c357600a8201805460ff1916600317905542600d8301556101a082611b63565b60449060405190628ea4db60e21b82526004820152426024820152fd5b634e487b7160e01b5f52601160045260245ffd5b346101cb5760203660031901126101cb576004356001600454036101b9576002600455805f52600160205260405f2090610a2d82611ae4565b6005820180549092906001600160a01b03908116330361048a57600e8201546203f48081018091116109e057421015610b6357600a8201600760ff1982541617905542600d8301558060068301541691600781015460fa810281810460fa14821517156109e057612710610aa391048092611ab0565b90610ab28260011c8093611ab0565b957ff4be77ec062d5f7654b87bb36e58ea9f81d5f66dbdb9eac1665caf87f4a7cad06060604051858152896020820152846040820152a280610b32575b508281610b1b575b50505082610b06576001600455005b610b1293541690611c58565b808080806101a0565b6004610b2a9301541684611c58565b848082610af7565b610b5d907f000000000000000000000000000000000000000000000000000000000000000086611c58565b86610aef565b604051634e40bea160e11b8152600490fd5b6119a2565b346101cb576101003660031901126101cb576064356001600160a01b03811681036101cb5760a43567ffffffffffffffff81116101cb57610bbf9036906004016119bf565b919060e43580151581036101cb576001600454036101b95760026004556040516331a9108f60e11b8152602435600482015260208160248160018060a01b037f0000000000000000000000000000000000000000000000000000000000000000165afa908115611222575f91611298575b50336001600160a01b039091160361128657604435602435146111df5760843515611274576103e860843510611262576001600160a01b038316156112505762278d0042018042116109e05760c4351161123e57610e1042018042116109e05760c4351061122d576040516331a9108f60e11b81526044356004820152916020836024817f00000000000000000000000000000000000000000000000000000000000000006001600160a01b03165afa928315611222575f936111f1575b50336001600160a01b038416146111df575f54945f1986146109e057600186015f5560405193610d1d856117fc565b8685526004356020860152602435604086015260443560608601523360808601526001600160a01b0390811660a0860152851660c085015260843560e0850152610d6681611a0c565b91610d746040519384611819565b81835236828201116101cb57815f92602092838601378301015261010083015260405180602081011067ffffffffffffffff60208301111761046457602081016040525f81526101208301525f6101408301524261016083015260c4356101808301525f6101a08301525f6101c083015215156101e0820152825f52600160205260405f20815181556020820151600182015560408201516002820155606082015160038201556004810160018060a01b03608084015116906bffffffffffffffffffffffff60a01b91828254161790556005820160018060a01b0360a08501511682825416179055600682019060018060a01b0360c0850151169082541617905560e0820151600782015561010082015180519067ffffffffffffffff821161046457610eb282610ea960088601546117c4565b60088601611a28565b602090601f831160011461117157610ee192915f91836110f8575b50508160011b915f199060031b1c19161790565b60088201555b61012082015180519067ffffffffffffffff821161046457610f1982610f1060098601546117c4565b60098601611a28565b602090601f831160011461110357610f4792915f91836110f85750508160011b915f199060031b1c19161790565b60098201555b6101408201519060088210156104c3576101e0600f60ff928319948486600a84015416911617600a820155610160860151600b820155610180860151600c8201556101a0860151600d8201556101c0860151600e8201550193015115159183541691161790556024355f526002602052610fca8260405f20611a77565b6044355f526003602052610fe18260405f20611a77565b604051600435815260018060a01b0382166020820152608435604082015260c435606082015260443590837f6bb122e4b14a41d111379967e6fd6c18cdd1cab504eea94e1765d3bded713ce6608060243593a460405160208101916323b872dd60e01b835233602483015230604483015260843560648301526064825260a082019282841067ffffffffffffffff8511176104645760409390935290515f92839283906001600160a01b03165af1611097611c11565b90159081156110c8575b506110b6576020906001600455604051908152f35b6040516312171d8360e31b8152600490fd5b80518015159250826110dd575b5050826110a1565b6110f09250602080918301019101611c40565b1582806110d5565b015190508780610ecd565b9190600984015f5260205f20905f935b601f1984168510611156576001945083601f1981161061113e575b505050811b016009820155610f4d565b01515f1960f88460031b161c1916905586808061112e565b81810151835560209485019460019093019290910190611113565b9190600884015f5260205f20905f935b601f19841685106111c4576001945083601f198116106111ac575b505050811b016008820155610ee7565b01515f1960f88460031b161c1916905586808061119c565b81810151835560209485019460019093019290910190611181565b60405163702d685960e01b8152600490fd5b61121491935060203d60201161121b575b61120c8183611819565b8101906119ed565b9185610cee565b503d611202565b6040513d5f823e3d90fd5b6040516296ff9960e31b8152600490fd5b6040516354090af960e01b8152600490fd5b60405163d92e233d60e01b8152600490fd5b60405163617ab12d60e11b8152600490fd5b604051631f2a200560e01b8152600490fd5b604051630e41dcbf60e21b8152600490fd5b6112b1915060203d60201161121b5761120c8183611819565b85610c30565b346101cb5760203660031901126101cb5760043560019081600454036101b9576002600455805f528160205260405f2090600482019160018060a01b03908184541633036101a757600a810180545f9060ff811660088110156104c357801580611464575b156113b057505050600660ff1982541617905584837f4877925cd1e279c5d3b475b58cf04cbb9e3b70c517a2305ac4933c34d28ca24f5f80a25b1561139e576007826103ac95541692600683015416910154927f0d759492754b3de794f1a978637f5e06fa6d5f61b11065953d46285d9c83f5bd6020604051868152a2611c58565b604051631ba168fb60e11b8152600490fd5b88811480611457575b156113f757505050600660ff1982541617905584837f4877925cd1e279c5d3b475b58cf04cbb9e3b70c517a2305ac4933c34d28ca24f5f80a2611356565b9192909160041461140a575b5050611356565b909150600e8301546203f48081018091116109e05780421061143957506005879260ff19161790558680611403565b60449060405190635393528b60e11b82526004820152426024820152fd5b50600c85015442116113b9565b50600c850154421161131c565b346101cb575f3660031901126101cb5760205f54604051908152f35b346101cb575f3660031901126101cb5760206040516203f4808152f35b346101cb575f3660031901126101cb576040517f00000000000000000000000000000000000000000000000000000000000000006001600160a01b03168152602090f35b346101cb576020806003193601126101cb576004355f52600260205260405f20906040519081602084549182815201935f5260205f20915f905b82821061153f576105d3856105c781890382611819565b835486529485019460019384019390910190611528565b346101cb5761156436611928565b905f52600260205260405f2080548210156101cb576020916115859161193e565b90546040519160031b1c8152f35b346101cb575f3660031901126101cb576040517f00000000000000000000000000000000000000000000000000000000000000006001600160a01b03168152602090f35b346101cb5760203660031901126101cb576001600454036101b95760026004556004355f52600160205260405f2061160e81611ae4565b60058101546001600160a01b0316330361048a57600e81015462278d0081018091116109e05780421061165957600a8201805460ff1916600317905542600d8301556101a082611b63565b60449060405190636a3d3fe360e01b82526004820152426024820152fd5b346101cb5760203660031901126101cb576004355f52600160205260405f2080549060018101549060028101546003820154600160a01b60019003948560048501541690866005860154169660068601541690600786015490600887016116dd9061183b565b916116ea6009890161183b565b93600a89015460ff169a600b8a015496600c8b015498600d8c01549a600e8d01549c600f015460ff169d60405160805261020097608051526080516020015260805160400152608051606001526080516080015260805160a0015260805160c0015260805160e0015280608051610100015260805101611769916118dd565b6080518103608051610120015261177f916118dd565b95608051610140016117909161191b565b608051610160015260805161018001526080516101a001526080516101c0015215156080516101e001526080519003608051f35b90600182811c921680156117f2575b60208310146117de57565b634e487b7160e01b5f52602260045260245ffd5b91607f16916117d3565b610200810190811067ffffffffffffffff82111761046457604052565b90601f8019910116810190811067ffffffffffffffff82111761046457604052565b9060405191825f825461184d816117c4565b908184526020946001916001811690815f146118bb575060011461187d575b50505061187b92500383611819565b565b5f90815285812095935091905b8183106118a357505061187b93508201015f808061186c565b8554888401850152948501948794509183019161188a565b9250505061187b94925060ff191682840152151560051b8201015f808061186c565b91908251928382525f5b848110611907575050825f602080949584010152601f8019910116010190565b6020818301810151848301820152016118e7565b9060088210156104c35752565b60409060031901126101cb576004359060243590565b8054821015611953575f5260205f2001905f90565b634e487b7160e01b5f52603260045260245ffd5b60209060206040818301928281528551809452019301915f5b82811061198e575050505090565b835185529381019392810192600101611980565b346101cb575f3660031901126101cb57602060405162278d008152f35b9181601f840112156101cb5782359167ffffffffffffffff83116101cb57602083818601950101116101cb57565b908160209103126101cb57516001600160a01b03811681036101cb5790565b67ffffffffffffffff811161046457601f01601f191660200190565b601f8211611a3557505050565b5f5260205f20906020601f840160051c83019310611a6d575b601f0160051c01905b818110611a62575050565b5f8155600101611a57565b9091508190611a4e565b80546801000000000000000081101561046457611a999160018201815561193e565b819291549060031b91821b915f19901b1916179055565b919082039182116109e057565b90918060409360208452816020850152848401375f828201840152601f01601f1916010190565b600a015460ff1660088110156104c35760048103611aff5750565b60405163f924664d60e01b81526004808201526044916104c190602483019061191b565b600a015460ff1660088110156104c35760028103611b3e5750565b60405163f924664d60e01b8152600260048201526044916104c190602483019061191b565b60018060a01b038060068301541660078301549160fa830283810460fa14841517156109e05761187b94611b9e612710600593048096611ab0565b9481547f288c4f69e41b68e52705717bf70617f3c77f4a2de96489356afc0591a806448560408051898152846020820152a280611be0575b5001541690611c58565b611c0b907f000000000000000000000000000000000000000000000000000000000000000086611c58565b5f611bd6565b3d15611c3b573d90611c2282611a0c565b91611c306040519384611819565b82523d5f602084013e565b606090565b908160209103126101cb575180151581036101cb5790565b60405163a9059cbb60e01b602082019081526001600160a01b03938416602483015260448083019590955293815291926080830167ffffffffffffffff811184821017610464575f94859485926040525193165af1611cb5611c11565b9015908115611cc6575b506110b657565b8051801515925082611cdb575b50505f611cbf565b611cee9250602080918301019101611c40565b155f80611cd356fea264697066735822122002cdebc9cea33e398224dfe9653300dc97fc7b27a89a5cc137221170be0a76a964736f6c63430008170033","linkReferences":{}},"methodIdentifiers":{"ABANDONED_DISPUTE_TIMEOUT()":"5fc9e969","DELIVERY_TIMEOUT()":"c732bcd2","DISPUTE_TIMEOUT()":"486265c6","MAX_DEADLINE()":"6f0e530f","MIN_AMOUNT()":"ddbcb5fa","MIN_DEADLINE()":"85ae341d","PROTOCOL_FEE_BPS()":"be378228","acceptDeal(uint256)":"7d41702e","agentDealsAsBuyer(uint256,uint256)":"2de74742","agentDealsAsSeller(uint256,uint256)":"ce4c27ce","claimRefund(uint256)":"5b7baf64","confirmDelivery(uint256)":"fd84cb97","contestDispute(uint256)":"74f8087b","createDeal(uint256,uint256,uint256,address,uint256,string,uint256,bool)":"6318aef1","deals(uint256)":"03988f84","deliverDeal(uint256,string)":"d2114e0c","disputeDeal(uint256)":"fc8edb52","feeRecipient()":"46904840","getBuyerDeals(uint256)":"3916ba38","getDeal(uint256)":"82fd5bac","getSellerDeals(uint256)":"bf9d36fc","identityRegistry()":"134e18f4","nextDealId()":"4d9879e3","sellerClaimAfterTimeout(uint256)":"7bce25dd","sellerClaimFromAbandonedDispute(uint256)":"04972752","serviceRegistry()":"cbcf252a"},"id":22}