{"abi":[{"type":"constructor","inputs":[{"name":"_identityRegistry","type":"address","internalType":"address"},{"name":"_serviceRegistry","type":"address","internalType":"address"},{"name":"_feeRecipient","type":"address","internalType":"address"}],"stateMutability":"nonpayable"},{"type":"function","name":"ABANDONED_DISPUTE_TIMEOUT","inputs":[],"outputs":[{"name":"","type":"uint256","internalType":"uint256"}],"stateMutability":"view"},{"type":"function","name":"DELIVERY_TIMEOUT","inputs":[],"outputs":[{"name":"","type":"uint256","internalType":"uint256"}],"stateMutability":"view"},{"type":"function","name":"DISPUTE_TIMEOUT","inputs":[],"outputs":[{"name":"","type":"uint256","internalType":"uint256"}],"stateMutability":"view"},{"type":"function","name":"MAX_DEADLINE","inputs":[],"outputs":[{"name":"","type":"uint256","internalType":"uint256"}],"stateMutability":"view"},{"type":"function","name":"MIN_AMOUNT","inputs":[],"outputs":[{"name":"","type":"uint256","internalType":"uint256"}],"stateMutability":"view"},{"type":"function","name":"MIN_DEADLINE","inputs":[],"outputs":[{"name":"","type":"uint256","internalType":"uint256"}],"stateMutability":"view"},{"type":"function","name":"PROTOCOL_FEE_BPS","inputs":[],"outputs":[{"name":"","type":"uint256","internalType":"uint256"}],"stateMutability":"view"},{"type":"function","name":"acceptDeal","inputs":[{"name":"dealId","type":"uint256","internalType":"uint256"}],"outputs":[],"stateMutability":"nonpayable"},{"type":"function","name":"agentDealsAsBuyer","inputs":[{"name":"","type":"uint256","internalType":"uint256"},{"name":"","type":"uint256","internalType":"uint256"}],"outputs":[{"name":"","type":"uint256","internalType":"uint256"}],"stateMutability":"view"},{"type":"function","name":"agentDealsAsSeller","inputs":[{"name":"","type":"uint256","internalType":"uint256"},{"name":"","type":"uint256","internalType":"uint256"}],"outputs":[{"name":"","type":"uint256","internalType":"uint256"}],"stateMutability":"view"},{"type":"function","name":"claimRefund","inputs":[{"name":"dealId","type":"uint256","internalType":"uint256"}],"outputs":[],"stateMutability":"nonpayable"},{"type":"function","name":"confirmDelivery","inputs":[{"name":"dealId","type":"uint256","internalType":"uint256"}],"outputs":[],"stateMutability":"nonpayable"},{"type":"function","name":"contestDispute","inputs":[{"name":"dealId","type":"uint256","internalType":"uint256"}],"outputs":[],"stateMutability":"nonpayable"},{"type":"function","name":"createDeal","inputs":[{"name":"serviceId","type":"uint256","internalType":"uint256"},{"name":"buyerAgentId","type":"uint256","internalType":"uint256"},{"name":"sellerAgentId","type":"uint256","internalType":"uint256"},{"name":"paymentToken","type":"address","internalType":"address"},{"name":"amount","type":"uint256","internalType":"uint256"},{"name":"taskDescription","type":"string","internalType":"string"},{"name":"deadline","type":"uint256","internalType":"uint256"}],"outputs":[{"name":"dealId","type":"uint256","internalType":"uint256"}],"stateMutability":"nonpayable"},{"type":"function","name":"deals","inputs":[{"name":"","type":"uint256","internalType":"uint256"}],"outputs":[{"name":"dealId","type":"uint256","internalType":"uint256"},{"name":"serviceId","type":"uint256","internalType":"uint256"},{"name":"buyerAgentId","type":"uint256","internalType":"uint256"},{"name":"sellerAgentId","type":"uint256","internalType":"uint256"},{"name":"buyer","type":"address","internalType":"address"},{"name":"seller","type":"address","internalType":"address"},{"name":"paymentToken","type":"address","internalType":"address"},{"name":"amount","type":"uint256","internalType":"uint256"},{"name":"taskDescription","type":"string","internalType":"string"},{"name":"deliveryProof","type":"string","internalType":"string"},{"name":"status","type":"uint8","internalType":"enum NastarEscrow.DealStatus"},{"name":"createdAt","type":"uint256","internalType":"uint256"},{"name":"deadline","type":"uint256","internalType":"uint256"},{"name":"completedAt","type":"uint256","internalType":"uint256"},{"name":"disputedAt","type":"uint256","internalType":"uint256"}],"stateMutability":"view"},{"type":"function","name":"deliverDeal","inputs":[{"name":"dealId","type":"uint256","internalType":"uint256"},{"name":"proof","type":"string","internalType":"string"}],"outputs":[],"stateMutability":"nonpayable"},{"type":"function","name":"disputeDeal","inputs":[{"name":"dealId","type":"uint256","internalType":"uint256"}],"outputs":[],"stateMutability":"nonpayable"},{"type":"function","name":"feeRecipient","inputs":[],"outputs":[{"name":"","type":"address","internalType":"address"}],"stateMutability":"view"},{"type":"function","name":"getBuyerDeals","inputs":[{"name":"agentId","type":"uint256","internalType":"uint256"}],"outputs":[{"name":"","type":"uint256[]","internalType":"uint256[]"}],"stateMutability":"view"},{"type":"function","name":"getDeal","inputs":[{"name":"dealId","type":"uint256","internalType":"uint256"}],"outputs":[{"name":"","type":"tuple","internalType":"struct NastarEscrow.Deal","components":[{"name":"dealId","type":"uint256","internalType":"uint256"},{"name":"serviceId","type":"uint256","internalType":"uint256"},{"name":"buyerAgentId","type":"uint256","internalType":"uint256"},{"name":"sellerAgentId","type":"uint256","internalType":"uint256"},{"name":"buyer","type":"address","internalType":"address"},{"name":"seller","type":"address","internalType":"address"},{"name":"paymentToken","type":"address","internalType":"address"},{"name":"amount","type":"uint256","internalType":"uint256"},{"name":"taskDescription","type":"string","internalType":"string"},{"name":"deliveryProof","type":"string","internalType":"string"},{"name":"status","type":"uint8","internalType":"enum NastarEscrow.DealStatus"},{"name":"createdAt","type":"uint256","internalType":"uint256"},{"name":"deadline","type":"uint256","internalType":"uint256"},{"name":"completedAt","type":"uint256","internalType":"uint256"},{"name":"disputedAt","type":"uint256","internalType":"uint256"}]}],"stateMutability":"view"},{"type":"function","name":"getSellerDeals","inputs":[{"name":"agentId","type":"uint256","internalType":"uint256"}],"outputs":[{"name":"","type":"uint256[]","internalType":"uint256[]"}],"stateMutability":"view"},{"type":"function","name":"identityRegistry","inputs":[],"outputs":[{"name":"","type":"address","internalType":"contract IERC721"}],"stateMutability":"view"},{"type":"function","name":"nextDealId","inputs":[],"outputs":[{"name":"","type":"uint256","internalType":"uint256"}],"stateMutability":"view"},{"type":"function","name":"sellerClaimAfterTimeout","inputs":[{"name":"dealId","type":"uint256","internalType":"uint256"}],"outputs":[],"stateMutability":"nonpayable"},{"type":"function","name":"sellerClaimFromAbandonedDispute","inputs":[{"name":"dealId","type":"uint256","internalType":"uint256"}],"outputs":[],"stateMutability":"nonpayable"},{"type":"function","name":"serviceRegistry","inputs":[],"outputs":[{"name":"","type":"address","internalType":"address"}],"stateMutability":"view"},{"type":"event","name":"DealAccepted","inputs":[{"name":"dealId","type":"uint256","indexed":true,"internalType":"uint256"},{"name":"sellerAgentId","type":"uint256","indexed":true,"internalType":"uint256"}],"anonymous":false},{"type":"event","name":"DealCompleted","inputs":[{"name":"dealId","type":"uint256","indexed":true,"internalType":"uint256"},{"name":"sellerAmount","type":"uint256","indexed":false,"internalType":"uint256"},{"name":"feeAmount","type":"uint256","indexed":false,"internalType":"uint256"}],"anonymous":false},{"type":"event","name":"DealContested","inputs":[{"name":"dealId","type":"uint256","indexed":true,"internalType":"uint256"},{"name":"buyerAmount","type":"uint256","indexed":false,"internalType":"uint256"},{"name":"sellerAmount","type":"uint256","indexed":false,"internalType":"uint256"},{"name":"feeAmount","type":"uint256","indexed":false,"internalType":"uint256"}],"anonymous":false},{"type":"event","name":"DealCreated","inputs":[{"name":"dealId","type":"uint256","indexed":true,"internalType":"uint256"},{"name":"buyerAgentId","type":"uint256","indexed":true,"internalType":"uint256"},{"name":"sellerAgentId","type":"uint256","indexed":true,"internalType":"uint256"},{"name":"serviceId","type":"uint256","indexed":false,"internalType":"uint256"},{"name":"paymentToken","type":"address","indexed":false,"internalType":"address"},{"name":"amount","type":"uint256","indexed":false,"internalType":"uint256"},{"name":"deadline","type":"uint256","indexed":false,"internalType":"uint256"}],"anonymous":false},{"type":"event","name":"DealDelivered","inputs":[{"name":"dealId","type":"uint256","indexed":true,"internalType":"uint256"},{"name":"deliveryProof","type":"string","indexed":false,"internalType":"string"}],"anonymous":false},{"type":"event","name":"DealDisputed","inputs":[{"name":"dealId","type":"uint256","indexed":true,"internalType":"uint256"},{"name":"buyerAgentId","type":"uint256","indexed":true,"internalType":"uint256"},{"name":"disputedAt","type":"uint256","indexed":false,"internalType":"uint256"}],"anonymous":false},{"type":"event","name":"DealExpired","inputs":[{"name":"dealId","type":"uint256","indexed":true,"internalType":"uint256"}],"anonymous":false},{"type":"event","name":"DealRefunded","inputs":[{"name":"dealId","type":"uint256","indexed":true,"internalType":"uint256"},{"name":"amount","type":"uint256","indexed":false,"internalType":"uint256"}],"anonymous":false},{"type":"error","name":"AbandonedDisputeTimeoutNotReached","inputs":[{"name":"canClaimAt","type":"uint256","internalType":"uint256"},{"name":"now_","type":"uint256","internalType":"uint256"}]},{"type":"error","name":"AmountTooSmall","inputs":[]},{"type":"error","name":"DeadlineTooLong","inputs":[]},{"type":"error","name":"DeadlineTooShort","inputs":[]},{"type":"error","name":"DealExpiredError","inputs":[]},{"type":"error","name":"DeliveryTimeoutNotReached","inputs":[{"name":"canClaimAt","type":"uint256","internalType":"uint256"},{"name":"now_","type":"uint256","internalType":"uint256"}]},{"type":"error","name":"DisputeTimeoutNotReached","inputs":[{"name":"canRefundAt","type":"uint256","internalType":"uint256"},{"name":"now_","type":"uint256","internalType":"uint256"}]},{"type":"error","name":"DisputeTimeoutReached","inputs":[]},{"type":"error","name":"InvalidStatus","inputs":[{"name":"expected","type":"uint8","internalType":"enum NastarEscrow.DealStatus"},{"name":"actual","type":"uint8","internalType":"enum NastarEscrow.DealStatus"}]},{"type":"error","name":"NotAgentOwner","inputs":[]},{"type":"error","name":"NotBuyer","inputs":[]},{"type":"error","name":"NotRefundable","inputs":[]},{"type":"error","name":"NotSeller","inputs":[]},{"type":"error","name":"ReentrancyDetected","inputs":[]},{"type":"error","name":"SelfDeal","inputs":[]},{"type":"error","name":"TransferFailed","inputs":[]},{"type":"error","name":"ZeroAddress","inputs":[]},{"type":"error","name":"ZeroAmount","inputs":[]}],"bytecode":{"object":"0x60e0346200010f57601f62001d8438819003918201601f19168301916001600160401b0383118484101762000113578084926060946040528339810103126200010f576200004d8162000127565b906200006a6040620000626020840162000127565b920162000127565b6001600455916001600160a01b0390811690811590811562000103575b8115620000f7575b50620000e55760805260a05260c052604051611c4790816200013d8239608051818181610649015281816106ff0152611523015260a051816104f1015260c0518181816111eb0152818161143a0152611b010152f35b60405163d92e233d60e01b8152600490fd5b90508316155f6200008f565b83811615915062000087565b5f80fd5b634e487b7160e01b5f52604160045260245ffd5b51906001600160a01b03821682036200010f5756fe60806040526004361015610011575f80fd5b5f3560e01c806303988f84146115f25780630497275214611552578063134e18f41461150e5780632de74742146114d15780633916ba38146114695780634690484014611425578063486265c6146114085780634d9879e3146113ec5780635b7baf641461122d5780635fc9e969146112285780636f0e530f1461122857806374f8087b146110a75780637bce25dd146110085780637d41702e14610f5557806382fd5bac14610d1157806385ae341d14610cf55780638d9fe726146105d0578063be378228146105b5578063bf9d36fc1461053d578063c732bcd214610520578063cbcf252a146104dc578063ce4c27ce1461049e578063d2114e0c1461026f578063ddbcb5fa14610253578063fc8edb52146101cf5763fd84cb9714610137575f80fd5b346101cb5760203660031901126101cb576001600454036101b95760026004556004355f52600160205260405f2061016e81611a3e565b60048101546001600160a01b031633036101a757600a8101805460ff1916600317905542600d8201556101a090611a7e565b6001600455005b60405163239700bf60e11b8152600490fd5b60405163c5f2be5160e01b8152600490fd5b5f80fd5b346101cb5760203660031901126101cb57600435805f52600160205260405f206101f881611a3e565b60048101546001600160a01b031633036101a75780600a60029201600460ff1982541617905542600e8201550154907fd9ffa04b2f1a5f51cbd7a6f14375665b41da7e2fa73566d65b5b4f6402a47d3d6020604051428152a3005b346101cb575f3660031901126101cb5760206040516103e88152f35b346101cb5760403660031901126101cb5767ffffffffffffffff6004356024358281116101cb576102a4903690600401611901565b9092825f5260019360209185835260405f2090600a82019160ff835416600881101561048a57888103610463575060058101546001600160a01b0316330361045157600c810154421161043f5760090190851161042b5761030f856103098354611706565b83611977565b5f96601f86116001146103a55750604093928592839261036784807fffa92937e04d994d5080499878491811e39b0c12ace952efca20f1fc61afd9129b9c5f9161039a575b508160011b915f199060031b1c19161790565b90555b600260ff198254161790558451958487958652850152848401375f828201840152601f01601f19168101030190a2005b90508501358d610354565b601f198616825f52855f20905f5b81811061041657509260409695928895927fffa92937e04d994d5080499878491811e39b0c12ace952efca20f1fc61afd9129a9b878097106103fd575b505084811b01905561036a565b8501355f19600388901b60f8161c191690558b806103f0565b868b01358355998701999183019187016103b3565b634e487b7160e01b5f52604160045260245ffd5b6040516372eec39360e01b8152600490fd5b604051635ec8235160e01b8152600490fd5b60405163f924664d60e01b8152600481018a905260449161048890602483019061185d565bfd5b634e487b7160e01b5f52602160045260245ffd5b346101cb576104ac3661186a565b905f52600360205260405f2080548210156101cb576020916104cd91611880565b90549060031b1c604051908152f35b346101cb575f3660031901126101cb576040517f00000000000000000000000000000000000000000000000000000000000000006001600160a01b03168152602090f35b346101cb575f3660031901126101cb57602060405162093a808152f35b346101cb576020806003193601126101cb576004355f52600360205260405f20906040519081602084549182815201935f5260205f20915f905b82821061059e5761059a8561058e8189038261175b565b604051918291826118a9565b0390f35b835486529485019460019384019390910190610577565b346101cb575f3660031901126101cb57602060405160fa8152f35b346101cb5760e03660031901126101cb576064356001600160a01b03811681036101cb5760a43567ffffffffffffffff81116101cb57610614903690600401611901565b91906001600454036101b95760026004556040516331a9108f60e11b8152602435600482015260208160248160018060a01b037f0000000000000000000000000000000000000000000000000000000000000000165afa908115610c60575f91610cd6575b50336001600160a01b0390911603610cc45760443560243514610c1d5760843515610cb2576103e860843510610ca0576001600160a01b03821615610c8e5762278d004201804211610c095760c43511610c7c57610e104201804211610c095760c43510610c6b576040516331a9108f60e11b81526044356004820152906020826024817f00000000000000000000000000000000000000000000000000000000000000006001600160a01b03165afa918215610c60575f92610c2f575b50336001600160a01b03831614610c1d575f54935f198514610c0957600185015f55604051926107668461173e565b8584526004356020850152602435604085015260443560608501523360808501526001600160a01b0390811660a0850152841660c084015260843560e08401526107af8161195b565b916107bd604051938461175b565b81835236828201116101cb57815f92602092838601378301015261010082015260405180602081011067ffffffffffffffff60208301111761042b57602081016040525f81526101208201525f6101408201524261016082015260c4356101808201525f6101a08201525f6101c0820152825f52600160205260405f2090805182556020810151600183015560408101516002830155606081015160038301556004820160018060a01b03608083015116906bffffffffffffffffffffffff60a01b91828254161790556005830160018060a01b0360a08401511682825416179055600683019060018060a01b0360c0840151169082541617905560e0810151600783015561010081015180519067ffffffffffffffff821161042b576108f4826108eb6008870154611706565b60088701611977565b602090601f8311600114610b9b5761092392915f9183610b22575b50508160011b915f199060031b1c19161790565b60088301555b61012081015180519067ffffffffffffffff821161042b5761095b826109526009870154611706565b60098701611977565b602090601f8311600114610b2d5761098992915f9183610b225750508160011b915f199060031b1c19161790565b60098301555b610140810151600881101561048a57600e916101c09160ff8019600a87015416911617600a850155610160810151600b850155610180810151600c8501556101a0810151600d85015501519101556024355f5260026020526109f48260405f206119c6565b6044355f526003602052610a0b8260405f206119c6565b604051600435815260018060a01b0382166020820152608435604082015260c435606082015260443590837f6bb122e4b14a41d111379967e6fd6c18cdd1cab504eea94e1765d3bded713ce6608060243593a460405160208101916323b872dd60e01b835233602483015230604483015260843560648301526064825260a082019282841067ffffffffffffffff85111761042b5760409390935290515f92839283906001600160a01b03165af1610ac1611b2c565b9015908115610af2575b50610ae0576020906001600455604051908152f35b6040516312171d8360e31b8152600490fd5b8051801515925082610b07575b505082610acb565b610b1a9250602080918301019101611b5b565b158280610aff565b01519050878061090f565b9190600985015f5260205f20905f935b601f1984168510610b80576001945083601f19811610610b68575b505050811b01600983015561098f565b01515f1960f88460031b161c19169055868080610b58565b81810151835560209485019460019093019290910190610b3d565b9190600885015f5260205f20905f935b601f1984168510610bee576001945083601f19811610610bd6575b505050811b016008830155610929565b01515f1960f88460031b161c19169055868080610bc6565b81810151835560209485019460019093019290910190610bab565b634e487b7160e01b5f52601160045260245ffd5b60405163702d685960e01b8152600490fd5b610c5291925060203d602011610c59575b610c4a818361175b565b81019061193c565b9084610737565b503d610c40565b6040513d5f823e3d90fd5b6040516296ff9960e31b8152600490fd5b6040516354090af960e01b8152600490fd5b60405163d92e233d60e01b8152600490fd5b60405163617ab12d60e11b8152600490fd5b604051631f2a200560e01b8152600490fd5b604051630e41dcbf60e21b8152600490fd5b610cef915060203d602011610c5957610c4a818361175b565b84610679565b346101cb575f3660031901126101cb576020604051610e108152f35b346101cb5760203660031901126101cb575f6101c0604051610d328161173e565b8281528260208201528260408201528260608201528260808201528260a08201528260c08201528260e082015260606101008201526060610120820152826101408201528261016082015282610180820152826101a082015201526004355f52600160205260405f2060405190610da88261173e565b8054825260018101546020830152600281015460408301526003810154606083015260048101546001600160a01b0390811660808401526005820154811660a084015260068201541660c0830152600781015460e0830152610e0c6008820161177d565b610100830152610e1e6009820161177d565b61012083015260ff600a8201541690600882101561048a57600e91610140840152600b810154610160840152600c810154610180840152600d8101546101a084015201546101c08201526040518091602082528051602083015260208101516040830152604081015160608301526060810151608083015260018060a01b0360808201511660a083015260018060a01b0360a08201511660c083015260018060a01b0360c08201511660e083015260e08101516101008301526101008101516101c0610f14610efc6101e0938461012088015261020087019061181f565b610120850151868203601f190161014088015261181f565b92610f2961014082015161016087019061185d565b6101608101516101808601526101808101516101a08601526101a0810151828601520151908301520390f35b346101cb5760203660031901126101cb57600435805f52600160205260405f20600a81019081549160ff8316600881101561048a5780610fe4575060058201546001600160a01b0316330361045157600c820154421161043f57600160039360ff19161790550154907f0fc3075ed12a7c6ae22f03793f31154b739fde75f708d06516d08d57a09b0d515f80a3005b60405163f924664d60e01b81525f600482015260449161048890602483019061185d565b346101cb5760203660031901126101cb576001600454036101b95760026004556004355f52600160205260405f2061103f81611a3e565b60058101546001600160a01b0316330361045157600c81015462093a808101809111610c095780421061108a57600a8201805460ff1916600317905542600d8301556101a082611a7e565b60449060405190628ea4db60e21b82526004820152426024820152fd5b346101cb5760203660031901126101cb576004356001600454036101b9576002600455805f52600160205260405f20906110e0826119ff565b6005820180549092906001600160a01b03908116330361045157600e8201546203f4808101809111610c095742101561121657600a8201600760ff1982541617905542600d8301558060068301541691600781015460fa810281810460fa1482151715610c09576127106111569104809261192f565b906111658260011c809361192f565b957ff4be77ec062d5f7654b87bb36e58ea9f81d5f66dbdb9eac1665caf87f4a7cad06060604051858152896020820152846040820152a2806111e5575b5082816111ce575b505050826111b9576001600455005b6111c593541690611b73565b808080806101a0565b60046111dd9301541684611b73565b8480826111aa565b611210907f000000000000000000000000000000000000000000000000000000000000000086611b73565b866111a2565b604051634e40bea160e11b8152600490fd5b6118e4565b346101cb5760203660031901126101cb5760043560019081600454036101b9576002600455805f528160205260405f2090600482019160018060a01b03908184541633036101a757600a810180545f9060ff8116600881101561048a578015806113df575b1561132b57505050600660ff1982541617905584837f4877925cd1e279c5d3b475b58cf04cbb9e3b70c517a2305ac4933c34d28ca24f5f80a25b156113195760078261131495541692600683015416910154927f0d759492754b3de794f1a978637f5e06fa6d5f61b11065953d46285d9c83f5bd6020604051868152a2611b73565b600455005b604051631ba168fb60e11b8152600490fd5b888114806113d2575b1561137257505050600660ff1982541617905584837f4877925cd1e279c5d3b475b58cf04cbb9e3b70c517a2305ac4933c34d28ca24f5f80a26112cc565b91929091600414611385575b50506112cc565b909150600e8301546203f4808101809111610c09578042106113b457506005879260ff1916179055868061137e565b60449060405190635393528b60e11b82526004820152426024820152fd5b50600c8501544211611334565b50600c8501544211611292565b346101cb575f3660031901126101cb5760205f54604051908152f35b346101cb575f3660031901126101cb5760206040516203f4808152f35b346101cb575f3660031901126101cb576040517f00000000000000000000000000000000000000000000000000000000000000006001600160a01b03168152602090f35b346101cb576020806003193601126101cb576004355f52600260205260405f20906040519081602084549182815201935f5260205f20915f905b8282106114ba5761059a8561058e8189038261175b565b8354865294850194600193840193909101906114a3565b346101cb576114df3661186a565b905f52600260205260405f2080548210156101cb5760209161150091611880565b90546040519160031b1c8152f35b346101cb575f3660031901126101cb576040517f00000000000000000000000000000000000000000000000000000000000000006001600160a01b03168152602090f35b346101cb5760203660031901126101cb576001600454036101b95760026004556004355f52600160205260405f20611589816119ff565b60058101546001600160a01b0316330361045157600e81015462278d008101809111610c09578042106115d457600a8201805460ff1916600317905542600d8301556101a082611a7e565b60449060405190636a3d3fe360e01b82526004820152426024820152fd5b346101cb5760203660031901126101cb576004355f52600160205260405f20805490600181015491600282015491600381015490600160a01b600190038060048301541690806005840154169060068401541694600784015490600885016116599061177d565b906116666009870161177d565b92600a87015460ff1698600b88015495600c89015497600d8a015499600e01549a6040519e8f9e8f916101e0988352602083015260408201526060015260808d015260a08c015260c08b015260e08a0152806101008a015288016116c99161181f565b8781036101208901526116db9161181f565b9461014087016116ea9161185d565b6101608601526101808501526101a08401526101c08301520390f35b90600182811c92168015611734575b602083101461172057565b634e487b7160e01b5f52602260045260245ffd5b91607f1691611715565b6101e0810190811067ffffffffffffffff82111761042b57604052565b90601f8019910116810190811067ffffffffffffffff82111761042b57604052565b9060405191825f825461178f81611706565b908184526020946001916001811690815f146117fd57506001146117bf575b5050506117bd9250038361175b565b565b5f90815285812095935091905b8183106117e55750506117bd93508201015f80806117ae565b855488840185015294850194879450918301916117cc565b925050506117bd94925060ff191682840152151560051b8201015f80806117ae565b91908251928382525f5b848110611849575050825f602080949584010152601f8019910116010190565b602081830181015184830182015201611829565b90600882101561048a5752565b60409060031901126101cb576004359060243590565b8054821015611895575f5260205f2001905f90565b634e487b7160e01b5f52603260045260245ffd5b60209060206040818301928281528551809452019301915f5b8281106118d0575050505090565b8351855293810193928101926001016118c2565b346101cb575f3660031901126101cb57602060405162278d008152f35b9181601f840112156101cb5782359167ffffffffffffffff83116101cb57602083818601950101116101cb57565b91908203918211610c0957565b908160209103126101cb57516001600160a01b03811681036101cb5790565b67ffffffffffffffff811161042b57601f01601f191660200190565b601f821161198457505050565b5f5260205f20906020601f840160051c830193106119bc575b601f0160051c01905b8181106119b1575050565b5f81556001016119a6565b909150819061199d565b80546801000000000000000081101561042b576119e891600182018155611880565b819291549060031b91821b915f19901b1916179055565b600a015460ff16600881101561048a5760048103611a1a5750565b60405163f924664d60e01b815260048082015260449161048890602483019061185d565b600a015460ff16600881101561048a5760028103611a595750565b60405163f924664d60e01b81526002600482015260449161048890602483019061185d565b60018060a01b038060068301541660078301549160fa830283810460fa1484151715610c09576117bd94611ab961271060059304809661192f565b9481547f288c4f69e41b68e52705717bf70617f3c77f4a2de96489356afc0591a806448560408051898152846020820152a280611afb575b5001541690611b73565b611b26907f000000000000000000000000000000000000000000000000000000000000000086611b73565b5f611af1565b3d15611b56573d90611b3d8261195b565b91611b4b604051938461175b565b82523d5f602084013e565b606090565b908160209103126101cb575180151581036101cb5790565b60405163a9059cbb60e01b602082019081526001600160a01b03938416602483015260448083019590955293815291926080830167ffffffffffffffff81118482101761042b575f94859485926040525193165af1611bd0611b2c565b9015908115611be1575b50610ae057565b8051801515925082611bf6575b50505f611bda565b611c099250602080918301019101611b5b565b155f80611bee56fea2646970667358221220d08646454b425d478cb7717e9fd911e7718918fa27c78b5c7c10e347f978e94964736f6c63430008170033","linkReferences":{}},"methodIdentifiers":{"ABANDONED_DISPUTE_TIMEOUT()":"5fc9e969","DELIVERY_TIMEOUT()":"c732bcd2","DISPUTE_TIMEOUT()":"486265c6","MAX_DEADLINE()":"6f0e530f","MIN_AMOUNT()":"ddbcb5fa","MIN_DEADLINE()":"85ae341d","PROTOCOL_FEE_BPS()":"be378228","acceptDeal(uint256)":"7d41702e","agentDealsAsBuyer(uint256,uint256)":"2de74742","agentDealsAsSeller(uint256,uint256)":"ce4c27ce","claimRefund(uint256)":"5b7baf64","confirmDelivery(uint256)":"fd84cb97","contestDispute(uint256)":"74f8087b","createDeal(uint256,uint256,uint256,address,uint256,string,uint256)":"8d9fe726","deals(uint256)":"03988f84","deliverDeal(uint256,string)":"d2114e0c","disputeDeal(uint256)":"fc8edb52","feeRecipient()":"46904840","getBuyerDeals(uint256)":"3916ba38","getDeal(uint256)":"82fd5bac","getSellerDeals(uint256)":"bf9d36fc","identityRegistry()":"134e18f4","nextDealId()":"4d9879e3","sellerClaimAfterTimeout(uint256)":"7bce25dd","sellerClaimFromAbandonedDispute(uint256)":"04972752","serviceRegistry()":"cbcf252a"},"id":22}