{"abi":[{"type":"constructor","inputs":[{"name":"_identityRegistry","type":"address","internalType":"address"},{"name":"_serviceRegistry","type":"address","internalType":"address"},{"name":"_feeRecipient","type":"address","internalType":"address"},{"name":"_judgeAddress","type":"address","internalType":"address"}],"stateMutability":"nonpayable"},{"type":"function","name":"ABANDONED_DISPUTE_TIMEOUT","inputs":[],"outputs":[{"name":"","type":"uint256","internalType":"uint256"}],"stateMutability":"view"},{"type":"function","name":"DELIVERY_TIMEOUT","inputs":[],"outputs":[{"name":"","type":"uint256","internalType":"uint256"}],"stateMutability":"view"},{"type":"function","name":"DISPUTE_TIMEOUT","inputs":[],"outputs":[{"name":"","type":"uint256","internalType":"uint256"}],"stateMutability":"view"},{"type":"function","name":"MAX_DEADLINE","inputs":[],"outputs":[{"name":"","type":"uint256","internalType":"uint256"}],"stateMutability":"view"},{"type":"function","name":"MIN_AMOUNT","inputs":[],"outputs":[{"name":"","type":"uint256","internalType":"uint256"}],"stateMutability":"view"},{"type":"function","name":"MIN_DEADLINE","inputs":[],"outputs":[{"name":"","type":"uint256","internalType":"uint256"}],"stateMutability":"view"},{"type":"function","name":"PROTOCOL_FEE_BPS","inputs":[],"outputs":[{"name":"","type":"uint256","internalType":"uint256"}],"stateMutability":"view"},{"type":"function","name":"acceptDeal","inputs":[{"name":"dealId","type":"uint256","internalType":"uint256"}],"outputs":[],"stateMutability":"nonpayable"},{"type":"function","name":"agentDealsAsBuyer","inputs":[{"name":"","type":"uint256","internalType":"uint256"},{"name":"","type":"uint256","internalType":"uint256"}],"outputs":[{"name":"","type":"uint256","internalType":"uint256"}],"stateMutability":"view"},{"type":"function","name":"agentDealsAsSeller","inputs":[{"name":"","type":"uint256","internalType":"uint256"},{"name":"","type":"uint256","internalType":"uint256"}],"outputs":[{"name":"","type":"uint256","internalType":"uint256"}],"stateMutability":"view"},{"type":"function","name":"claimRefund","inputs":[{"name":"dealId","type":"uint256","internalType":"uint256"}],"outputs":[],"stateMutability":"nonpayable"},{"type":"function","name":"confirmDelivery","inputs":[{"name":"dealId","type":"uint256","internalType":"uint256"}],"outputs":[],"stateMutability":"nonpayable"},{"type":"function","name":"contestDispute","inputs":[{"name":"dealId","type":"uint256","internalType":"uint256"}],"outputs":[],"stateMutability":"nonpayable"},{"type":"function","name":"createDeal","inputs":[{"name":"serviceId","type":"uint256","internalType":"uint256"},{"name":"buyerAgentId","type":"uint256","internalType":"uint256"},{"name":"sellerAgentId","type":"uint256","internalType":"uint256"},{"name":"paymentToken","type":"address","internalType":"address"},{"name":"amount","type":"uint256","internalType":"uint256"},{"name":"taskDescription","type":"string","internalType":"string"},{"name":"deadline","type":"uint256","internalType":"uint256"},{"name":"autoConfirm","type":"bool","internalType":"bool"}],"outputs":[{"name":"dealId","type":"uint256","internalType":"uint256"}],"stateMutability":"nonpayable"},{"type":"function","name":"deals","inputs":[{"name":"","type":"uint256","internalType":"uint256"}],"outputs":[{"name":"dealId","type":"uint256","internalType":"uint256"},{"name":"serviceId","type":"uint256","internalType":"uint256"},{"name":"buyerAgentId","type":"uint256","internalType":"uint256"},{"name":"sellerAgentId","type":"uint256","internalType":"uint256"},{"name":"buyer","type":"address","internalType":"address"},{"name":"seller","type":"address","internalType":"address"},{"name":"paymentToken","type":"address","internalType":"address"},{"name":"amount","type":"uint256","internalType":"uint256"},{"name":"taskDescription","type":"string","internalType":"string"},{"name":"deliveryProof","type":"string","internalType":"string"},{"name":"status","type":"uint8","internalType":"enum NastarEscrow.DealStatus"},{"name":"createdAt","type":"uint256","internalType":"uint256"},{"name":"deadline","type":"uint256","internalType":"uint256"},{"name":"completedAt","type":"uint256","internalType":"uint256"},{"name":"disputedAt","type":"uint256","internalType":"uint256"},{"name":"autoConfirm","type":"bool","internalType":"bool"}],"stateMutability":"view"},{"type":"function","name":"deliverDeal","inputs":[{"name":"dealId","type":"uint256","internalType":"uint256"},{"name":"proof","type":"string","internalType":"string"}],"outputs":[],"stateMutability":"nonpayable"},{"type":"function","name":"disputeDeal","inputs":[{"name":"dealId","type":"uint256","internalType":"uint256"}],"outputs":[],"stateMutability":"nonpayable"},{"type":"function","name":"feeRecipient","inputs":[],"outputs":[{"name":"","type":"address","internalType":"address"}],"stateMutability":"view"},{"type":"function","name":"getBuyerDeals","inputs":[{"name":"agentId","type":"uint256","internalType":"uint256"}],"outputs":[{"name":"","type":"uint256[]","internalType":"uint256[]"}],"stateMutability":"view"},{"type":"function","name":"getDeal","inputs":[{"name":"dealId","type":"uint256","internalType":"uint256"}],"outputs":[{"name":"","type":"tuple","internalType":"struct NastarEscrow.Deal","components":[{"name":"dealId","type":"uint256","internalType":"uint256"},{"name":"serviceId","type":"uint256","internalType":"uint256"},{"name":"buyerAgentId","type":"uint256","internalType":"uint256"},{"name":"sellerAgentId","type":"uint256","internalType":"uint256"},{"name":"buyer","type":"address","internalType":"address"},{"name":"seller","type":"address","internalType":"address"},{"name":"paymentToken","type":"address","internalType":"address"},{"name":"amount","type":"uint256","internalType":"uint256"},{"name":"taskDescription","type":"string","internalType":"string"},{"name":"deliveryProof","type":"string","internalType":"string"},{"name":"status","type":"uint8","internalType":"enum NastarEscrow.DealStatus"},{"name":"createdAt","type":"uint256","internalType":"uint256"},{"name":"deadline","type":"uint256","internalType":"uint256"},{"name":"completedAt","type":"uint256","internalType":"uint256"},{"name":"disputedAt","type":"uint256","internalType":"uint256"},{"name":"autoConfirm","type":"bool","internalType":"bool"}]}],"stateMutability":"view"},{"type":"function","name":"getSellerDeals","inputs":[{"name":"agentId","type":"uint256","internalType":"uint256"}],"outputs":[{"name":"","type":"uint256[]","internalType":"uint256[]"}],"stateMutability":"view"},{"type":"function","name":"identityRegistry","inputs":[],"outputs":[{"name":"","type":"address","internalType":"contract IERC721"}],"stateMutability":"view"},{"type":"function","name":"judgeAddress","inputs":[],"outputs":[{"name":"","type":"address","internalType":"address"}],"stateMutability":"view"},{"type":"function","name":"nextDealId","inputs":[],"outputs":[{"name":"","type":"uint256","internalType":"uint256"}],"stateMutability":"view"},{"type":"function","name":"resolveDisputeWithJudge","inputs":[{"name":"dealId","type":"uint256","internalType":"uint256"},{"name":"sellerBps","type":"uint256","internalType":"uint256"},{"name":"reasoning","type":"string","internalType":"string"}],"outputs":[],"stateMutability":"nonpayable"},{"type":"function","name":"sellerClaimAfterTimeout","inputs":[{"name":"dealId","type":"uint256","internalType":"uint256"}],"outputs":[],"stateMutability":"nonpayable"},{"type":"function","name":"sellerClaimFromAbandonedDispute","inputs":[{"name":"dealId","type":"uint256","internalType":"uint256"}],"outputs":[],"stateMutability":"nonpayable"},{"type":"function","name":"serviceRegistry","inputs":[],"outputs":[{"name":"","type":"address","internalType":"address"}],"stateMutability":"view"},{"type":"event","name":"DealAccepted","inputs":[{"name":"dealId","type":"uint256","indexed":true,"internalType":"uint256"},{"name":"sellerAgentId","type":"uint256","indexed":true,"internalType":"uint256"}],"anonymous":false},{"type":"event","name":"DealCompleted","inputs":[{"name":"dealId","type":"uint256","indexed":true,"internalType":"uint256"},{"name":"sellerAmount","type":"uint256","indexed":false,"internalType":"uint256"},{"name":"feeAmount","type":"uint256","indexed":false,"internalType":"uint256"}],"anonymous":false},{"type":"event","name":"DealContested","inputs":[{"name":"dealId","type":"uint256","indexed":true,"internalType":"uint256"},{"name":"buyerAmount","type":"uint256","indexed":false,"internalType":"uint256"},{"name":"sellerAmount","type":"uint256","indexed":false,"internalType":"uint256"},{"name":"feeAmount","type":"uint256","indexed":false,"internalType":"uint256"}],"anonymous":false},{"type":"event","name":"DealCreated","inputs":[{"name":"dealId","type":"uint256","indexed":true,"internalType":"uint256"},{"name":"buyerAgentId","type":"uint256","indexed":true,"internalType":"uint256"},{"name":"sellerAgentId","type":"uint256","indexed":true,"internalType":"uint256"},{"name":"serviceId","type":"uint256","indexed":false,"internalType":"uint256"},{"name":"paymentToken","type":"address","indexed":false,"internalType":"address"},{"name":"amount","type":"uint256","indexed":false,"internalType":"uint256"},{"name":"deadline","type":"uint256","indexed":false,"internalType":"uint256"}],"anonymous":false},{"type":"event","name":"DealDelivered","inputs":[{"name":"dealId","type":"uint256","indexed":true,"internalType":"uint256"},{"name":"deliveryProof","type":"string","indexed":false,"internalType":"string"}],"anonymous":false},{"type":"event","name":"DealDisputed","inputs":[{"name":"dealId","type":"uint256","indexed":true,"internalType":"uint256"},{"name":"buyerAgentId","type":"uint256","indexed":true,"internalType":"uint256"},{"name":"disputedAt","type":"uint256","indexed":false,"internalType":"uint256"}],"anonymous":false},{"type":"event","name":"DealExpired","inputs":[{"name":"dealId","type":"uint256","indexed":true,"internalType":"uint256"}],"anonymous":false},{"type":"event","name":"DealRefunded","inputs":[{"name":"dealId","type":"uint256","indexed":true,"internalType":"uint256"},{"name":"amount","type":"uint256","indexed":false,"internalType":"uint256"}],"anonymous":false},{"type":"event","name":"DisputeResolved","inputs":[{"name":"dealId","type":"uint256","indexed":true,"internalType":"uint256"},{"name":"sellerBps","type":"uint256","indexed":false,"internalType":"uint256"},{"name":"buyerAmount","type":"uint256","indexed":false,"internalType":"uint256"},{"name":"sellerAmount","type":"uint256","indexed":false,"internalType":"uint256"},{"name":"feeAmount","type":"uint256","indexed":false,"internalType":"uint256"},{"name":"reasoning","type":"string","indexed":false,"internalType":"string"}],"anonymous":false},{"type":"error","name":"AbandonedDisputeTimeoutNotReached","inputs":[{"name":"canClaimAt","type":"uint256","internalType":"uint256"},{"name":"now_","type":"uint256","internalType":"uint256"}]},{"type":"error","name":"AmountTooSmall","inputs":[]},{"type":"error","name":"DeadlineTooLong","inputs":[]},{"type":"error","name":"DeadlineTooShort","inputs":[]},{"type":"error","name":"DealExpiredError","inputs":[]},{"type":"error","name":"DeliveryTimeoutNotReached","inputs":[{"name":"canClaimAt","type":"uint256","internalType":"uint256"},{"name":"now_","type":"uint256","internalType":"uint256"}]},{"type":"error","name":"DisputeTimeoutNotReached","inputs":[{"name":"canRefundAt","type":"uint256","internalType":"uint256"},{"name":"now_","type":"uint256","internalType":"uint256"}]},{"type":"error","name":"DisputeTimeoutReached","inputs":[]},{"type":"error","name":"InvalidStatus","inputs":[{"name":"expected","type":"uint8","internalType":"enum NastarEscrow.DealStatus"},{"name":"actual","type":"uint8","internalType":"enum NastarEscrow.DealStatus"}]},{"type":"error","name":"NotAgentOwner","inputs":[]},{"type":"error","name":"NotBuyer","inputs":[]},{"type":"error","name":"NotJudge","inputs":[]},{"type":"error","name":"NotRefundable","inputs":[]},{"type":"error","name":"NotSeller","inputs":[]},{"type":"error","name":"ReentrancyDetected","inputs":[]},{"type":"error","name":"SelfDeal","inputs":[]},{"type":"error","name":"TransferFailed","inputs":[]},{"type":"error","name":"ZeroAddress","inputs":[]},{"type":"error","name":"ZeroAmount","inputs":[]}],"bytecode":{"object":"0x610100346200014857601f620020de38819003918201601f19168301916001600160401b038311848410176200014c5780849260809460405283398101031262000148576200004e8162000160565b6200005c6020830162000160565b90620000796060620000716040860162000160565b940162000160565b6001600455916001600160a01b03918216801580156200013d575b801562000132575b620001205760805260a0528260c0528116155f146200011857505b60e052604051611f689081620001768239608051818181610dfe01528181610eb401526117ea015260a05181610548015260c0518181816107ca01528181610d36015281816116bd0152611e22015260e05181818161067e01526117010152f35b9050620000b7565b60405163d92e233d60e01b8152600490fd5b50828516156200009c565b508282161562000094565b5f80fd5b634e487b7160e01b5f52604160045260245ffd5b51906001600160a01b0382168203620001485756fe60a06040526004361015610011575f80fd5b5f3560e01c806303988f84146118b95780630497275214611819578063134e18f4146117d55780632de74742146117985780633916ba38146117305780633c03d8be146116ec57806346904840146116a8578063486265c61461168b5780634d9879e31461166f5780635b7baf64146114b55780635fc9e96914610d735780636318aef114610d785780636f0e530f14610d7357806374f8087b14610bfa5780637bce25dd14610b5b5780637d41702e14610aa857806382fd5bac1461083f57806385ae341d14610823578063b51c2bbd14610628578063be3782281461060c578063bf9d36fc14610594578063c732bcd214610577578063cbcf252a14610533578063ce4c27ce146104f5578063d2114e0c14610285578063ddbcb5fa14610269578063fc8edb52146101e55763fd84cb971461014d575f80fd5b346101e15760203660031901126101e1576001600454036101cf5760026004556004355f52600160205260405f2061018481611d5e565b60048101546001600160a01b031633036101bd57600a8101805460ff1916600317905542600d8201556101b690611d9e565b6001600455005b60405163239700bf60e11b8152600490fd5b60405163c5f2be5160e01b8152600490fd5b5f80fd5b346101e15760203660031901126101e157600435805f52600160205260405f2061020e81611d5e565b60048101546001600160a01b031633036101bd5780600a60029201600460ff1982541617905542600e8201550154907fd9ffa04b2f1a5f51cbd7a6f14375665b41da7e2fa73566d65b5b4f6402a47d3d6020604051428152a3005b346101e1575f3660031901126101e15760206040516103e88152f35b346101e15760403660031901126101e15767ffffffffffffffff6004356024358281116101e1576102ba903690600401611c01565b6001939184600454036101cf576002600455835f5260209085825260405f2093600a85019060ff82541660088110156104e1578881036104ba575060058601546001600160a01b031633036104a857600c86015442116104965760098601908511610482576103338561032d8354611a06565b83611c6a565b5f85601f8111600114610421578061035f925f91610416575b508160011b915f199060031b1c19161790565b90555b600f85015460ff16156103ca57916103bd6103c59694927fffa92937e04d994d5080499878491811e39b0c12ace952efca20f1fc61afd91294600360ff1982541617905542600d880155604051938385948552840191611cff565b0390a2611d9e565b600455005b7fffa92937e04d994d5080499878491811e39b0c12ace952efca20f1fc61afd91294509061040e91600260ff19825416179055604051938385948552840191611cff565b0390a2600455005b90508501358b61034c565b50601f19861690825f5286865f20925f5b888d83831061046b5750505010610452575b50508785811b019055610362565b8401355f19600388901b60f8161c191690558880610444565b858a0135875590950194938401938a935001610432565b634e487b7160e01b5f52604160045260245ffd5b6040516372eec39360e01b8152600490fd5b604051635ec8235160e01b8152600490fd5b60405163f924664d60e01b8152600481018a90526044916104df906024830190611b5d565bfd5b634e487b7160e01b5f52602160045260245ffd5b346101e15761050336611b6a565b905f52600360205260405f2080548210156101e15760209161052491611b80565b90549060031b1c604051908152f35b346101e1575f3660031901126101e1576040517f00000000000000000000000000000000000000000000000000000000000000006001600160a01b03168152602090f35b346101e1575f3660031901126101e157602060405162093a808152f35b346101e1576020806003193601126101e1576004355f52600360205260405f20906040519081602084549182815201935f5260205f20915f905b8282106105f5576105f1856105e581890382611a5b565b60405191829182611ba9565b0390f35b8354865294850194600193840193909101906105ce565b346101e1575f3660031901126101e15760206040516107d08152f35b346101e15760603660031901126101e15760043560243560443567ffffffffffffffff81116101e15761065f903690600401611c01565b6001600493929354036101cf5760026004556001600160a01b039082907f00000000000000000000000000000000000000000000000000000000000000008316330361081157612710809411610809575b855f52600160205260405f20956106c687611d1f565b600a8701600760ff1982541617905542600d88015583600688015416946007880154926107d08085029085820414851517156107f5578261070991048095611cf2565b94808602928684048214871517156107f55761074c610778917f6035fff1df463a8d4d949ff5d7a0a590f113e705ade8351e5caa5e62a549fa5f95048098611cf2565b9960405193849384528b602085015288604085015287606085015260a0608085015260a0840191611cff565b0390a2806107c4575b50806107ad575b5082610795576001600455005b60046107a49401541690611e94565b808080806101b6565b6107be908260058701541684611e94565b84610788565b6107ef907f000000000000000000000000000000000000000000000000000000000000000085611e94565b85610781565b634e487b7160e01b5f52601160045260245ffd5b8391506106b0565b60405163773839b160e11b8152600490fd5b346101e1575f3660031901126101e1576020604051610e108152f35b346101e15760203660031901126101e1575f6101e060405161086081611a3e565b8281528260208201528260408201528260608201528260808201528260a08201528260c08201528260e082015260606101008201526060610120820152826101408201528261016082015282610180820152826101a0820152826101c082015201526004355f52600160205260405f20604051906108dd82611a3e565b8054825260018101546020830152600281015460408301526003810154606083015260048101546001600160a01b0390811660808401526005820154811660a084015260068201541660c0830152600781015460e083015261094160088201611a7d565b61010083015261095360098201611a7d565b61012083015260ff600a8201541660088110156104e15760ff91600f91610140850152600b810154610160850152600c810154610180850152600d8101546101a0850152600e8101546101c085015201541615156101e08201526040518091602082528051602083015260208101516040830152604081015160608301526060810151608083015260018060a01b0360808201511660a083015260018060a01b0360a08201511660c083015260018060a01b0360c08201511660e083015260e08101516101008301526101008101516101e0610a59610a416102009384610120880152610220870190611b1f565b610120850151868203601f1901610140880152611b1f565b92610a6e610140820151610160870190611b5d565b6101608101516101808601526101808101516101a08601526101a08101516101c08601526101c08101518286015201511515908301520390f35b346101e15760203660031901126101e157600435805f52600160205260405f20600a81019081549160ff831660088110156104e15780610b37575060058201546001600160a01b031633036104a857600c820154421161049657600160039360ff19161790550154907f0fc3075ed12a7c6ae22f03793f31154b739fde75f708d06516d08d57a09b0d515f80a3005b60405163f924664d60e01b81525f60048201526044916104df906024830190611b5d565b346101e15760203660031901126101e1576001600454036101cf5760026004556004355f52600160205260405f20610b9281611d5e565b60058101546001600160a01b031633036104a857600c81015462093a8081018091116107f557804210610bdd57600a8201805460ff1916600317905542600d8301556101b682611d9e565b60449060405190628ea4db60e21b82526004820152426024820152fd5b346101e15760203660031901126101e1576004356001600454036101cf576002600455805f52600160205260405f2090610c3382611d1f565b6005820180549092906001600160a01b0390811633036104a857600e8201546203f48081018091116107f557421015610d6157600a8201600760ff1982541617905542600d830155806006830154169160078101546107d08082029082820414821517156107f557612710610caa91048092611cf2565b90610cb98260011c8093611cf2565b957ff4be77ec062d5f7654b87bb36e58ea9f81d5f66dbdb9eac1665caf87f4a7cad06060604051858152896020820152846040820152a280610d30575b508281610d19575b50505082610d0d576001600455005b6107a493541690611e94565b6004610d289301541684611e94565b848082610cfe565b610d5b907f000000000000000000000000000000000000000000000000000000000000000086611e94565b86610cf6565b604051634e40bea160e11b8152600490fd5b611be4565b346101e1576101003660031901126101e1576064356001600160a01b03811681036101e15760a43567ffffffffffffffff81116101e157610dbd903690600401611c01565b919060e43580151581036101e1576001600454036101cf5760026004556040516331a9108f60e11b8152602435600482015260208160248160018060a01b037f0000000000000000000000000000000000000000000000000000000000000000165afa908115611420575f91611496575b50336001600160a01b039091160361148457604435602435146113dd5760843515611472576103e860843510611460576001600160a01b0383161561144e5762278d0042018042116107f55760c4351161143c57610e1042018042116107f55760c4351061142b576040516331a9108f60e11b81526044356004820152916020836024817f00000000000000000000000000000000000000000000000000000000000000006001600160a01b03165afa928315611420575f936113ef575b50336001600160a01b038416146113dd575f54945f1986146107f557600186015f5560405193610f1b85611a3e565b8685526004356020860152602435604086015260443560608601523360808601526001600160a01b0390811660a0860152851660c085015260843560e0850152610f6481611c4e565b91610f726040519384611a5b565b81835236828201116101e157815f92602092838601378301015261010083015260405180602081011067ffffffffffffffff60208301111761048257602081016040525f81526101208301525f6101408301524261016083015260c4356101808301525f6101a08301525f6101c083015215156101e0820152825f52600160205260405f20815181556020820151600182015560408201516002820155606082015160038201556004810160018060a01b03608084015116906bffffffffffffffffffffffff60a01b91828254161790556005820160018060a01b0360a08501511682825416179055600682019060018060a01b0360c0850151169082541617905560e0820151600782015561010082015180519067ffffffffffffffff8211610482576110b0826110a76008860154611a06565b60088601611c6a565b602090601f831160011461136f576110df92915f91836112f6575b50508160011b915f199060031b1c19161790565b60088201555b61012082015180519067ffffffffffffffff8211610482576111178261110e6009860154611a06565b60098601611c6a565b602090601f83116001146113015761114592915f91836112f65750508160011b915f199060031b1c19161790565b60098201555b6101408201519060088210156104e1576101e0600f60ff928319948486600a84015416911617600a820155610160860151600b820155610180860151600c8201556101a0860151600d8201556101c0860151600e8201550193015115159183541691161790556024355f5260026020526111c88260405f20611cb9565b6044355f5260036020526111df8260405f20611cb9565b604051600435815260018060a01b0382166020820152608435604082015260c435606082015260443590837f6bb122e4b14a41d111379967e6fd6c18cdd1cab504eea94e1765d3bded713ce6608060243593a460405160208101916323b872dd60e01b835233602483015230604483015260843560648301526064825260a082019282841067ffffffffffffffff8511176104825760409390935290515f92839283906001600160a01b03165af1611295611e4d565b90159081156112c6575b506112b4576020906001600455604051908152f35b6040516312171d8360e31b8152600490fd5b80518015159250826112db575b50508261129f565b6112ee9250602080918301019101611e7c565b1582806112d3565b0151905087806110cb565b9190600984015f5260205f20905f935b601f1984168510611354576001945083601f1981161061133c575b505050811b01600982015561114b565b01515f1960f88460031b161c1916905586808061132c565b81810151835560209485019460019093019290910190611311565b9190600884015f5260205f20905f935b601f19841685106113c2576001945083601f198116106113aa575b505050811b0160088201556110e5565b01515f1960f88460031b161c1916905586808061139a565b8181015183556020948501946001909301929091019061137f565b60405163702d685960e01b8152600490fd5b61141291935060203d602011611419575b61140a8183611a5b565b810190611c2f565b9185610eec565b503d611400565b6040513d5f823e3d90fd5b6040516296ff9960e31b8152600490fd5b6040516354090af960e01b8152600490fd5b60405163d92e233d60e01b8152600490fd5b60405163617ab12d60e11b8152600490fd5b604051631f2a200560e01b8152600490fd5b604051630e41dcbf60e21b8152600490fd5b6114af915060203d6020116114195761140a8183611a5b565b85610e2e565b346101e15760203660031901126101e15760043560019081600454036101cf576002600455805f528160205260405f2090600482019160018060a01b03908184541633036101bd57600a810180545f9060ff811660088110156104e157801580611662575b156115ae57505050600660ff1982541617905584837f4877925cd1e279c5d3b475b58cf04cbb9e3b70c517a2305ac4933c34d28ca24f5f80a25b1561159c576007826103c595541692600683015416910154927f0d759492754b3de794f1a978637f5e06fa6d5f61b11065953d46285d9c83f5bd6020604051868152a2611e94565b604051631ba168fb60e11b8152600490fd5b88811480611655575b156115f557505050600660ff1982541617905584837f4877925cd1e279c5d3b475b58cf04cbb9e3b70c517a2305ac4933c34d28ca24f5f80a2611554565b91929091600414611608575b5050611554565b909150600e8301546203f48081018091116107f55780421061163757506005879260ff19161790558680611601565b60449060405190635393528b60e11b82526004820152426024820152fd5b50600c85015442116115b7565b50600c850154421161151a565b346101e1575f3660031901126101e15760205f54604051908152f35b346101e1575f3660031901126101e15760206040516203f4808152f35b346101e1575f3660031901126101e1576040517f00000000000000000000000000000000000000000000000000000000000000006001600160a01b03168152602090f35b346101e1575f3660031901126101e1576040517f00000000000000000000000000000000000000000000000000000000000000006001600160a01b03168152602090f35b346101e1576020806003193601126101e1576004355f52600260205260405f20906040519081602084549182815201935f5260205f20915f905b828210611781576105f1856105e581890382611a5b565b83548652948501946001938401939091019061176a565b346101e1576117a636611b6a565b905f52600260205260405f2080548210156101e1576020916117c791611b80565b90546040519160031b1c8152f35b346101e1575f3660031901126101e1576040517f00000000000000000000000000000000000000000000000000000000000000006001600160a01b03168152602090f35b346101e15760203660031901126101e1576001600454036101cf5760026004556004355f52600160205260405f2061185081611d1f565b60058101546001600160a01b031633036104a857600e81015462278d0081018091116107f55780421061189b57600a8201805460ff1916600317905542600d8301556101b682611d9e565b60449060405190636a3d3fe360e01b82526004820152426024820152fd5b346101e15760203660031901126101e1576004355f52600160205260405f2080549060018101549060028101546003820154600160a01b600190039485600485015416908660058601541696600686015416906007860154906008870161191f90611a7d565b9161192c60098901611a7d565b93600a89015460ff169a600b8a015496600c8b015498600d8c01549a600e8d01549c600f015460ff169d60405160805261020097608051526080516020015260805160400152608051606001526080516080015260805160a0015260805160c0015260805160e00152806080516101000152608051016119ab91611b1f565b608051810360805161012001526119c191611b1f565b95608051610140016119d291611b5d565b608051610160015260805161018001526080516101a001526080516101c0015215156080516101e001526080519003608051f35b90600182811c92168015611a34575b6020831014611a2057565b634e487b7160e01b5f52602260045260245ffd5b91607f1691611a15565b610200810190811067ffffffffffffffff82111761048257604052565b90601f8019910116810190811067ffffffffffffffff82111761048257604052565b9060405191825f8254611a8f81611a06565b908184526020946001916001811690815f14611afd5750600114611abf575b505050611abd92500383611a5b565b565b5f90815285812095935091905b818310611ae5575050611abd93508201015f8080611aae565b85548884018501529485019487945091830191611acc565b92505050611abd94925060ff191682840152151560051b8201015f8080611aae565b91908251928382525f5b848110611b49575050825f602080949584010152601f8019910116010190565b602081830181015184830182015201611b29565b9060088210156104e15752565b60409060031901126101e1576004359060243590565b8054821015611b95575f5260205f2001905f90565b634e487b7160e01b5f52603260045260245ffd5b60209060206040818301928281528551809452019301915f5b828110611bd0575050505090565b835185529381019392810192600101611bc2565b346101e1575f3660031901126101e157602060405162278d008152f35b9181601f840112156101e15782359167ffffffffffffffff83116101e157602083818601950101116101e157565b908160209103126101e157516001600160a01b03811681036101e15790565b67ffffffffffffffff811161048257601f01601f191660200190565b601f8211611c7757505050565b5f5260205f20906020601f840160051c83019310611caf575b601f0160051c01905b818110611ca4575050565b5f8155600101611c99565b9091508190611c90565b80546801000000000000000081101561048257611cdb91600182018155611b80565b819291549060031b91821b915f19901b1916179055565b919082039182116107f557565b908060209392818452848401375f828201840152601f01601f1916010190565b600a015460ff1660088110156104e15760048103611d3a5750565b60405163f924664d60e01b81526004808201526044916104df906024830190611b5d565b600a015460ff1660088110156104e15760028103611d795750565b60405163f924664d60e01b8152600260048201526044916104df906024830190611b5d565b60018060a01b03806006830154166007830154916107d08084029084820414841517156107f557611abd94611dda612710600593048096611cf2565b9481547f288c4f69e41b68e52705717bf70617f3c77f4a2de96489356afc0591a806448560408051898152846020820152a280611e1c575b5001541690611e94565b611e47907f000000000000000000000000000000000000000000000000000000000000000086611e94565b5f611e12565b3d15611e77573d90611e5e82611c4e565b91611e6c6040519384611a5b565b82523d5f602084013e565b606090565b908160209103126101e1575180151581036101e15790565b60405163a9059cbb60e01b602082019081526001600160a01b03938416602483015260448083019590955293815291926080830167ffffffffffffffff811184821017610482575f94859485926040525193165af1611ef1611e4d565b9015908115611f02575b506112b457565b8051801515925082611f17575b50505f611efb565b611f2a9250602080918301019101611e7c565b155f80611f0f56fea264697066735822122095dc803a3fa6939466bd0a093b62166ebfe22ac4e7840b7052d0a071c3049be864736f6c63430008170033","linkReferences":{}},"methodIdentifiers":{"ABANDONED_DISPUTE_TIMEOUT()":"5fc9e969","DELIVERY_TIMEOUT()":"c732bcd2","DISPUTE_TIMEOUT()":"486265c6","MAX_DEADLINE()":"6f0e530f","MIN_AMOUNT()":"ddbcb5fa","MIN_DEADLINE()":"85ae341d","PROTOCOL_FEE_BPS()":"be378228","acceptDeal(uint256)":"7d41702e","agentDealsAsBuyer(uint256,uint256)":"2de74742","agentDealsAsSeller(uint256,uint256)":"ce4c27ce","claimRefund(uint256)":"5b7baf64","confirmDelivery(uint256)":"fd84cb97","contestDispute(uint256)":"74f8087b","createDeal(uint256,uint256,uint256,address,uint256,string,uint256,bool)":"6318aef1","deals(uint256)":"03988f84","deliverDeal(uint256,string)":"d2114e0c","disputeDeal(uint256)":"fc8edb52","feeRecipient()":"46904840","getBuyerDeals(uint256)":"3916ba38","getDeal(uint256)":"82fd5bac","getSellerDeals(uint256)":"bf9d36fc","identityRegistry()":"134e18f4","judgeAddress()":"3c03d8be","nextDealId()":"4d9879e3","resolveDisputeWithJudge(uint256,uint256,string)":"b51c2bbd","sellerClaimAfterTimeout(uint256)":"7bce25dd","sellerClaimFromAbandonedDispute(uint256)":"04972752","serviceRegistry()":"cbcf252a"},"id":22}