{"abi":[{"type":"constructor","inputs":[{"name":"_identityRegistry","type":"address","internalType":"address"}],"stateMutability":"nonpayable"},{"type":"function","name":"MAX_TAGS","inputs":[],"outputs":[{"name":"","type":"uint256","internalType":"uint256"}],"stateMutability":"view"},{"type":"function","name":"agentServices","inputs":[{"name":"","type":"uint256","internalType":"uint256"},{"name":"","type":"uint256","internalType":"uint256"}],"outputs":[{"name":"","type":"uint256","internalType":"uint256"}],"stateMutability":"view"},{"type":"function","name":"deactivateService","inputs":[{"name":"serviceId","type":"uint256","internalType":"uint256"}],"outputs":[],"stateMutability":"nonpayable"},{"type":"function","name":"getActiveServices","inputs":[{"name":"offset","type":"uint256","internalType":"uint256"},{"name":"limit","type":"uint256","internalType":"uint256"}],"outputs":[{"name":"result","type":"tuple[]","internalType":"struct ServiceRegistry.Service[]","components":[{"name":"agentId","type":"uint256","internalType":"uint256"},{"name":"provider","type":"address","internalType":"address"},{"name":"name","type":"string","internalType":"string"},{"name":"description","type":"string","internalType":"string"},{"name":"endpoint","type":"string","internalType":"string"},{"name":"paymentToken","type":"address","internalType":"address"},{"name":"pricePerCall","type":"uint256","internalType":"uint256"},{"name":"active","type":"bool","internalType":"bool"},{"name":"createdAt","type":"uint256","internalType":"uint256"},{"name":"updatedAt","type":"uint256","internalType":"uint256"}]},{"name":"count","type":"uint256","internalType":"uint256"}],"stateMutability":"view"},{"type":"function","name":"getAgentServices","inputs":[{"name":"agentId","type":"uint256","internalType":"uint256"}],"outputs":[{"name":"","type":"uint256[]","internalType":"uint256[]"}],"stateMutability":"view"},{"type":"function","name":"getService","inputs":[{"name":"serviceId","type":"uint256","internalType":"uint256"}],"outputs":[{"name":"","type":"tuple","internalType":"struct ServiceRegistry.Service","components":[{"name":"agentId","type":"uint256","internalType":"uint256"},{"name":"provider","type":"address","internalType":"address"},{"name":"name","type":"string","internalType":"string"},{"name":"description","type":"string","internalType":"string"},{"name":"endpoint","type":"string","internalType":"string"},{"name":"paymentToken","type":"address","internalType":"address"},{"name":"pricePerCall","type":"uint256","internalType":"uint256"},{"name":"active","type":"bool","internalType":"bool"},{"name":"createdAt","type":"uint256","internalType":"uint256"},{"name":"updatedAt","type":"uint256","internalType":"uint256"}]}],"stateMutability":"view"},{"type":"function","name":"getServicesByTag","inputs":[{"name":"tag","type":"bytes32","internalType":"bytes32"}],"outputs":[{"name":"","type":"uint256[]","internalType":"uint256[]"}],"stateMutability":"view"},{"type":"function","name":"identityRegistry","inputs":[],"outputs":[{"name":"","type":"address","internalType":"contract IERC721"}],"stateMutability":"view"},{"type":"function","name":"nextServiceId","inputs":[],"outputs":[{"name":"","type":"uint256","internalType":"uint256"}],"stateMutability":"view"},{"type":"function","name":"registerService","inputs":[{"name":"agentId","type":"uint256","internalType":"uint256"},{"name":"name","type":"string","internalType":"string"},{"name":"description","type":"string","internalType":"string"},{"name":"endpoint","type":"string","internalType":"string"},{"name":"paymentToken","type":"address","internalType":"address"},{"name":"pricePerCall","type":"uint256","internalType":"uint256"},{"name":"tags","type":"bytes32[]","internalType":"bytes32[]"}],"outputs":[{"name":"serviceId","type":"uint256","internalType":"uint256"}],"stateMutability":"nonpayable"},{"type":"function","name":"services","inputs":[{"name":"","type":"uint256","internalType":"uint256"}],"outputs":[{"name":"agentId","type":"uint256","internalType":"uint256"},{"name":"provider","type":"address","internalType":"address"},{"name":"name","type":"string","internalType":"string"},{"name":"description","type":"string","internalType":"string"},{"name":"endpoint","type":"string","internalType":"string"},{"name":"paymentToken","type":"address","internalType":"address"},{"name":"pricePerCall","type":"uint256","internalType":"uint256"},{"name":"active","type":"bool","internalType":"bool"},{"name":"createdAt","type":"uint256","internalType":"uint256"},{"name":"updatedAt","type":"uint256","internalType":"uint256"}],"stateMutability":"view"},{"type":"function","name":"servicesByTag","inputs":[{"name":"","type":"bytes32","internalType":"bytes32"},{"name":"","type":"uint256","internalType":"uint256"}],"outputs":[{"name":"","type":"uint256","internalType":"uint256"}],"stateMutability":"view"},{"type":"function","name":"updateService","inputs":[{"name":"serviceId","type":"uint256","internalType":"uint256"},{"name":"name","type":"string","internalType":"string"},{"name":"description","type":"string","internalType":"string"},{"name":"endpoint","type":"string","internalType":"string"},{"name":"paymentToken","type":"address","internalType":"address"},{"name":"pricePerCall","type":"uint256","internalType":"uint256"},{"name":"active","type":"bool","internalType":"bool"}],"outputs":[],"stateMutability":"nonpayable"},{"type":"event","name":"ServiceDeactivated","inputs":[{"name":"serviceId","type":"uint256","indexed":true,"internalType":"uint256"}],"anonymous":false},{"type":"event","name":"ServiceRegistered","inputs":[{"name":"serviceId","type":"uint256","indexed":true,"internalType":"uint256"},{"name":"agentId","type":"uint256","indexed":true,"internalType":"uint256"},{"name":"provider","type":"address","indexed":true,"internalType":"address"},{"name":"name","type":"string","indexed":false,"internalType":"string"},{"name":"pricePerCall","type":"uint256","indexed":false,"internalType":"uint256"}],"anonymous":false},{"type":"event","name":"ServiceTagged","inputs":[{"name":"serviceId","type":"uint256","indexed":true,"internalType":"uint256"},{"name":"tag","type":"bytes32","indexed":true,"internalType":"bytes32"}],"anonymous":false},{"type":"event","name":"ServiceUpdated","inputs":[{"name":"serviceId","type":"uint256","indexed":true,"internalType":"uint256"},{"name":"name","type":"string","indexed":false,"internalType":"string"},{"name":"pricePerCall","type":"uint256","indexed":false,"internalType":"uint256"},{"name":"active","type":"bool","indexed":false,"internalType":"bool"}],"anonymous":false},{"type":"error","name":"EmptyName","inputs":[]},{"type":"error","name":"NotAgentOwner","inputs":[]},{"type":"error","name":"NotServiceProvider","inputs":[]},{"type":"error","name":"TooManyTags","inputs":[]},{"type":"error","name":"ZeroAddress","inputs":[]}],"bytecode":{"object":"0x60a03461008b57601f6116bd38819003918201601f19168301916001600160401b0383118484101761008f5780849260209460405283398101031261008b57516001600160a01b0381169081900361008b5780156100795760805260405161161990816100a482396080518181816109080152610efc0152f35b60405163d92e233d60e01b8152600490fd5b5f80fd5b634e487b7160e01b5f52604160045260245ffdfe6080806040526004361015610012575f80fd5b5f3560e01c9081630530984914610f2b57508063134e18f414610ee75780633c3f8c6414610ea15780636696ff2614610e645780636effd6e41461082c578063b581699914610417578063bf00fae314610398578063c22c4f43146102ba578063cce672261461029f578063ec9c321214610214578063ef0e239b14610143578063f6c53d9b146101275763fdea812f146100ab575f80fd5b3461012357602080600319360112610123576004355f52600360205260405f20906040519081602084549182815201935f5260205f20915f905b82821061010c57610108856100fc81890382611178565b60405191829182610f90565b0390f35b8354865294850194600193840193909101906100e5565b5f80fd5b34610123575f3660031901126101235760205f54604051908152f35b346101235760203660031901126101235761015c611371565b506004355f52600160205261010860405f2060096040519161017d8361115c565b8054835260018101546001600160a01b0390811660208501526101a260028301611199565b60408501526101b360038301611199565b60608501526101c460048301611199565b608085015260058201541660a0840152600681015460c084015260ff600782015416151560e08401526008810154610100840152015461012082015260405191829160208352602083019061108b565b34610123576020366003190112610123576004355f81815260016020819052604090912001546001600160a01b0316330361028d57805f52600160205260405f206007810160ff1981541690556009429101557fd03940fb17cb0a1a204f69aebcdc5eb179c0d0c61f1d1a75872054468d7aa6655f80a2005b604051633c32397160e21b8152600490fd5b34610123575f366003190112610123576020604051600a8152f35b34610123576020366003190112610123576004355f52600160205260405f20604081549160018060a01b039081600182015416906102fa60028201611199565b61030660038301611199565b61037661031560048501611199565b956005850154169561036860068601549361035a60ff60078901541696600960088a0154990154998c519d8e9d8e6101409384938252602082015201528c019061104d565b908a820360608c015261104d565b9088820360808a015261104d565b9460a087015260c0860152151560e08501526101008401526101208301520390f35b34610123576103af6103a936610ff4565b906113d1565b906040519060408201926040835281518094526060830160608560051b850101926020809101915f905b8782106103ed578680878760208301520390f35b909192948380610409600193605f198b8203018652895161108b565b9701920192019092916103d9565b346101235760e0366003190112610123576004356024356001600160401b0381116101235761044a90369060040161100a565b91906044356001600160401b0381116101235761046b90369060040161100a565b93906064356001600160401b0381116101235761048c90369060040161100a565b9590610496611037565b9160c435151560c43503610123575f87815260016020819052604090912001546001600160a01b0316330361028d57841561081a57865f52600160205260405f20936001600160401b03861161071a57610500866104f76002880154611124565b600288016112a2565b5f86601f81116001146107b1578061052c925f916107a6575b508160011b915f199060031b1c19161790565b60028601555b6001600160401b03821161071a5761055a826105516003880154611124565b600388016112a2565b5f90601f83116001146107395761058892915f918361072e575b50508160011b915f199060031b1c19161790565b60038401555b6001600160401b03871161071a576105b6876105ad6004860154611124565b600486016112a2565b5f90601f881160011461068c579680610606927f44854e574bb78f46d4a0921e7f2d2e859684fb53c31fea549916ca23394e025998995f926106815750508160011b915f199060031b1c19161790565b60048301555b6005820180546001600160a01b0319166001600160a01b0390921691909117905560a435600682015560078101805460c435151560ff1660ff199190911617905560094291015561066a60405192839260608452606084019161133a565b60a435602083015260c435151560408301520390a2005b013590508980610574565b600484015f5260205f20915f5b601f198a16811061070257509188916001937f44854e574bb78f46d4a0921e7f2d2e859684fb53c31fea549916ca23394e0259999a601f198116106106e9575b505050811b01600483015561060c565b01355f19600384901b60f8161c191690558880806106d9565b90926020600181928686013581550194019101610699565b634e487b7160e01b5f52604160045260245ffd5b013590508a80610574565b600386939293015f5260205f20905f935b601f198416851061078e576001945083601f19811610610775575b505050811b01600384015561058e565b01355f19600384901b60f8161c19169055898080610765565b8181013583556020948501946001909301920161074a565b90508901358c610519565b50600286015f5260205f20905f5b601f1989168110610802575087601f198116106107e9575b5050600186811b016002860155610532565b8801355f19600389901b60f8161c1916905589806107d7565b9091602060018192858d0135815501930191016107bf565b604051632ef1310560e01b8152600490fd5b346101235760e0366003190112610123576024356001600160401b0381116101235761085c90369060040161100a565b6044356001600160401b0381116101235761087b90369060040161100a565b6064929192356001600160401b0381116101235761089d90369060040161100a565b6108a8929192611037565b9060c435936001600160401b0385116101235736602386011215610123576001600160401b0385600401351161012357366024866004013560051b87010111610123576040516331a9108f60e11b815260048035908201526020816024817f00000000000000000000000000000000000000000000000000000000000000006001600160a01b03165afa908115610e59575f91610e17575b50336001600160a01b0390911603610e0557851561081a57600a856004013511610df3576109b4916109a85f54986109778a61123b565b5f55604051966109868861115c565b600435885233602089015261099c368b8e61125d565b6040890152369161125d565b6060860152369161125d565b608083015260018060a01b031660a082015260a43560c0820152600160e08201524261010082015242610120820152835f52600160205260405f2090805182556001820160018060a01b036020830151166bffffffffffffffffffffffff60a01b82541617905560408101518051906001600160401b03821161071a57610a4b82610a426002870154611124565b600287016112a2565b602090601f8311600114610d8557610a7992915f9183610d0c5750508160011b915f199060031b1c19161790565b60028301555b60608101518051906001600160401b03821161071a57610aaf82610aa66003870154611124565b600387016112a2565b602090601f8311600114610d1757610add92915f9183610d0c5750508160011b915f199060031b1c19161790565b60038301555b60808101518051906001600160401b03821161071a57610b1382610b0a6004870154611124565b600487016112a2565b602090601f8311600114610c9a57826101209360099593610b48935f92610c8f5750508160011b915f199060031b1c19161790565b60048501555b6005840160018060a01b0360a0830151166bffffffffffffffffffffffff60a01b82541617905560c08101516006850155610b9e60e08201511515600786019060ff801983541691151516179055565b610100810151600885015501519101556004355f526002602052610bc58360405f206112f1565b5f5b81600401358110610c27575050610bec6020936040519260408452604084019161133a565b60a43584830152827f2f97baea4f38ff977318c4e4648cfa7b665121ba164e1cb7070d29a78f59f475339380600435940390a4604051908152f35b80610c3c60019284600401356024860161132a565b355f526003602052610c518560405f206112f1565b610c638184600401356024860161132a565b35857f6e02f3582baab8ea69670589bccc675b69e5c12f51ff41245c97ae066151fa1f5f80a301610bc7565b015190508b80610574565b90600485015f5260205f20915f5b601f1985168110610cf4575092600994926001926101209583601f19811610610cdc575b505050811b016004850155610b4e565b01515f1960f88460031b161c191690558a8080610ccc565b91926020600181928685015181550194019201610ca8565b015190508980610574565b9190600385015f5260205f20905f935b601f1984168510610d6a576001945083601f19811610610d52575b505050811b016003830155610ae3565b01515f1960f88460031b161c19169055888080610d42565b81810151835560209485019460019093019290910190610d27565b9190600285015f5260205f20905f935b601f1984168510610dd8576001945083601f19811610610dc0575b505050811b016002830155610a7f565b01515f1960f88460031b161c19169055888080610db0565b81810151835560209485019460019093019290910190610d95565b60405163ee39e85560e01b8152600490fd5b604051630e41dcbf60e21b8152600490fd5b90506020813d602011610e51575b81610e3260209383611178565b8101031261012357516001600160a01b03811681036101235789610940565b3d9150610e25565b6040513d5f823e3d90fd5b3461012357610e7236610ff4565b905f52600260205260405f20805482101561012357602091610e9391610fcb565b90546040519160031b1c8152f35b34610123576040366003190112610123576024356004355f52600360205260405f20805482101561012357602091610ed891610fcb565b90549060031b1c604051908152f35b34610123575f366003190112610123576040517f00000000000000000000000000000000000000000000000000000000000000006001600160a01b03168152602090f35b34610123576020906020600319360112610123576004355f52600260205260405f2091825480835260208301935f5260205f20915f905b828210610f7957610108856100fc81890382611178565b835486529485019460019384019390910190610f62565b60209060206040818301928281528551809452019301915f5b828110610fb7575050505090565b835185529381019392810192600101610fa9565b8054821015610fe0575f5260205f2001905f90565b634e487b7160e01b5f52603260045260245ffd5b6040906003190112610123576004359060243590565b9181601f84011215610123578235916001600160401b038311610123576020838186019501011161012357565b608435906001600160a01b038216820361012357565b91908251928382525f5b848110611077575050825f602080949584010152601f8019910116010190565b602081830181015184830182015201611057565b9061014091805182526110ea6110d86110c660208401519560018060a01b03809716602087015260408501519080604088015286019061104d565b6060840151858203606087015261104d565b6080830151848203608086015261104d565b9260a08201511660a083015260c081015160c083015260e0810151151560e083015261010080820151908301526101208091015191015290565b90600182811c92168015611152575b602083101461113e57565b634e487b7160e01b5f52602260045260245ffd5b91607f1691611133565b61014081019081106001600160401b0382111761071a57604052565b90601f801991011681019081106001600160401b0382111761071a57604052565b9060405191825f82546111ab81611124565b908184526020946001916001811690815f1461121957506001146111db575b5050506111d992500383611178565b565b5f90815285812095935091905b8183106112015750506111d993508201015f80806111ca565b855488840185015294850194879450918301916111e8565b925050506111d994925060ff191682840152151560051b8201015f80806111ca565b5f1981146112495760010190565b634e487b7160e01b5f52601160045260245ffd5b9291926001600160401b03821161071a5760405191611286601f8201601f191660200184611178565b829481845281830111610123578281602093845f960137010152565b601f82116112af57505050565b5f5260205f20906020601f840160051c830193106112e7575b601f0160051c01905b8181106112dc575050565b5f81556001016112d1565b90915081906112c8565b80546801000000000000000081101561071a5761131391600182018155610fcb565b819291549060031b91821b915f19901b1916179055565b9190811015610fe05760051b0190565b908060209392818452848401375f828201840152601f01601f1916010190565b6001600160401b03811161071a5760051b60200190565b6040519061137e8261115c565b5f6101208382815282602082015260606040820152606080820152606060808201528260a08201528260c08201528260e0820152826101008201520152565b8051821015610fe05760209160051b010190565b5f805490939092845b8481106115af5750848310156115885782850390858211611249578082101561158157505b6114088161135a565b9060406114186040519384611178565b818352601f196114278361135a565b015f5b81811061156a57505082965f945f935f5b89811080611561575b1561155557805f526001602090808252865f209060ff6007830154169081611479575b505050506114749061123b565b61143b565b8c8c959c101561149e575b505050506114946114749161123b565b97905f8080611467565b92600961154c93611474969b93611494968c51946114bb8661115c565b8354865260018060a01b03809285015416908601526114dc60028401611199565b8d8601526114ec60038401611199565b60608601526114fd60048401611199565b608086015260058301541660a0850152600682015460c0850152151560e08401526008810154610100840152015461012082015261153b828c6113bd565b52611546818b6113bd565b5061123b565b96915f80611484565b50509550955050505050565b50818610611444565b602090611575611371565b8282880101520161142a565b90506113ff565b50915050604051602081018181106001600160401b0382111761071a576040525f81529190565b805f52600160205260ff600760405f200154166115cf575b6001016113da565b946115db60019161123b565b9590506115c756fea26469706673582212209137872fb3a1d983f5c3ed5021d2e41b5b82163f9560807fbb5c8e108d3d1a3164736f6c63430008170033","linkReferences":{}},"methodIdentifiers":{"MAX_TAGS()":"cce67226","agentServices(uint256,uint256)":"6696ff26","deactivateService(uint256)":"ec9c3212","getActiveServices(uint256,uint256)":"bf00fae3","getAgentServices(uint256)":"05309849","getService(uint256)":"ef0e239b","getServicesByTag(bytes32)":"fdea812f","identityRegistry()":"134e18f4","nextServiceId()":"f6c53d9b","registerService(uint256,string,string,string,address,uint256,bytes32[])":"6effd6e4","services(uint256)":"c22c4f43","servicesByTag(bytes32,uint256)":"3c3f8c64","updateService(uint256,string,string,string,address,uint256,bool)":"b5816999"},"id":23}